{
  "contractName": "ERC721Enumerable",
  "abi": [
    {
      "anonymous": false,
      "inputs": [
        {
          "indexed": true,
          "internalType": "address",
          "name": "from",
          "type": "address"
        },
        {
          "indexed": true,
          "internalType": "address",
          "name": "to",
          "type": "address"
        },
        {
          "indexed": true,
          "internalType": "uint256",
          "name": "tokenId",
          "type": "uint256"
        }
      ],
      "name": "Transfer",
      "type": "event"
    },
    {
      "inputs": [
        {
          "internalType": "address",
          "name": "_owner",
          "type": "address"
        }
      ],
      "name": "balanceOf",
      "outputs": [
        {
          "internalType": "uint256",
          "name": "",
          "type": "uint256"
        }
      ],
      "stateMutability": "view",
      "type": "function"
    },
    {
      "inputs": [
        {
          "internalType": "uint256",
          "name": "_tokenId",
          "type": "uint256"
        }
      ],
      "name": "ownerOf",
      "outputs": [
        {
          "internalType": "address",
          "name": "",
          "type": "address"
        }
      ],
      "stateMutability": "view",
      "type": "function"
    },
    {
      "inputs": [
        {
          "internalType": "address",
          "name": "_from",
          "type": "address"
        },
        {
          "internalType": "address",
          "name": "_to",
          "type": "address"
        },
        {
          "internalType": "uint256",
          "name": "_tokenId",
          "type": "uint256"
        }
      ],
      "name": "transferFrom",
      "outputs": [],
      "stateMutability": "nonpayable",
      "type": "function"
    },
    {
      "inputs": [],
      "name": "totalSupply",
      "outputs": [
        {
          "internalType": "uint256",
          "name": "",
          "type": "uint256"
        }
      ],
      "stateMutability": "view",
      "type": "function"
    },
    {
      "inputs": [
        {
          "internalType": "uint256",
          "name": "_index",
          "type": "uint256"
        }
      ],
      "name": "tokenByIndex",
      "outputs": [
        {
          "internalType": "uint256",
          "name": "",
          "type": "uint256"
        }
      ],
      "stateMutability": "view",
      "type": "function"
    },
    {
      "inputs": [
        {
          "internalType": "address",
          "name": "_owner",
          "type": "address"
        },
        {
          "internalType": "uint256",
          "name": "_index",
          "type": "uint256"
        }
      ],
      "name": "tokenOfOwnerByIndex",
      "outputs": [
        {
          "internalType": "uint256",
          "name": "",
          "type": "uint256"
        }
      ],
      "stateMutability": "view",
      "type": "function"
    }
  ],
  "bytecode": "0x608060405234801561001057600080fd5b50610d76806100206000396000f3fe608060405234801561001057600080fd5b50600436106100625760003560e01c806318160ddd1461006757806323b872dd146100855780632f745c59146100a15780634f6ccce7146100d15780636352211e1461010157806370a0823114610131575b600080fd5b61006f610161565b60405161007c91906106d4565b60405180910390f35b61009f600480360381019061009a919061077e565b61016e565b005b6100bb60048036038101906100b691906107d1565b61017e565b6040516100c891906106d4565b60405180910390f35b6100eb60048036038101906100e69190610811565b61022e565b6040516100f891906106d4565b60405180910390f35b61011b60048036038101906101169190610811565b61029f565b604051610128919061084d565b60405180910390f35b61014b60048036038101906101469190610868565b610350565b60405161015891906106d4565b60405180910390f35b6000600380549050905090565b610179838383610408565b505050565b600061018983610350565b82106101ca576040517f08c379a00000000000000000000000000000000000000000000000000000000081526004016101c1906108f2565b60405180910390fd5b600560008473ffffffffffffffffffffffffffffffffffffffff1673ffffffffffffffffffffffffffffffffffffffff168152602001908152602001600020828154811061021b5761021a610912565b5b9060005260206000200154905092915050565b6000610238610161565b8210610279576040517f08c379a00000000000000000000000000000000000000000000000000000000081526004016102709061098d565b60405180910390fd5b6003828154811061028d5761028c610912565b5b90600052602060002001549050919050565b60008060008084815260200190815260200160002060009054906101000a900473ffffffffffffffffffffffffffffffffffffffff169050600073ffffffffffffffffffffffffffffffffffffffff168173ffffffffffffffffffffffffffffffffffffffff161415610347576040517f08c379a000000000000000000000000000000000000000000000000000000000815260040161033e90610a1f565b60405180910390fd5b80915050919050565b60008073ffffffffffffffffffffffffffffffffffffffff168273ffffffffffffffffffffffffffffffffffffffff1614156103c1576040517f08c379a00000000000000000000000000000000000000000000000000000000081526004016103b890610ab1565b60405180910390fd5b600160008373ffffffffffffffffffffffffffffffffffffffff1673ffffffffffffffffffffffffffffffffffffffff168152602001908152602001600020549050919050565b600073ffffffffffffffffffffffffffffffffffffffff168273ffffffffffffffffffffffffffffffffffffffff161415610478576040517f08c379a000000000000000000000000000000000000000000000000000000000815260040161046f90610b43565b60405180910390fd5b600073ffffffffffffffffffffffffffffffffffffffff168373ffffffffffffffffffffffffffffffffffffffff1614156104e8576040517f08c379a00000000000000000000000000000000000000000000000000000000081526004016104df90610bd5565b60405180910390fd5b8273ffffffffffffffffffffffffffffffffffffffff166105088261029f565b73ffffffffffffffffffffffffffffffffffffffff161461055e576040517f08c379a000000000000000000000000000000000000000000000000000000000815260040161055590610c67565b60405180910390fd5b8160008083815260200190815260200160002060006101000a81548173ffffffffffffffffffffffffffffffffffffffff021916908373ffffffffffffffffffffffffffffffffffffffff16021790555060018060008573ffffffffffffffffffffffffffffffffffffffff1673ffffffffffffffffffffffffffffffffffffffff16815260200190815260200160002060008282546105fe9190610cb6565b9250508190555060018060008473ffffffffffffffffffffffffffffffffffffffff1673ffffffffffffffffffffffffffffffffffffffff16815260200190815260200160002060008282546106549190610cea565b92505081905550808273ffffffffffffffffffffffffffffffffffffffff168473ffffffffffffffffffffffffffffffffffffffff167fddf252ad1be2c89b69c2b068fc378daa952ba7f163c4a11628f55a4df523b3ef60405160405180910390a4505050565b6000819050919050565b6106ce816106bb565b82525050565b60006020820190506106e960008301846106c5565b92915050565b600080fd5b600073ffffffffffffffffffffffffffffffffffffffff82169050919050565b600061071f826106f4565b9050919050565b61072f81610714565b811461073a57600080fd5b50565b60008135905061074c81610726565b92915050565b61075b816106bb565b811461076657600080fd5b50565b60008135905061077881610752565b92915050565b600080600060608486031215610797576107966106ef565b5b60006107a58682870161073d565b93505060206107b68682870161073d565b92505060406107c786828701610769565b9150509250925092565b600080604083850312156107e8576107e76106ef565b5b60006107f68582860161073d565b925050602061080785828601610769565b9150509250929050565b600060208284031215610827576108266106ef565b5b600061083584828501610769565b91505092915050565b61084781610714565b82525050565b6000602082019050610862600083018461083e565b92915050565b60006020828403121561087e5761087d6106ef565b5b600061088c8482850161073d565b91505092915050565b600082825260208201905092915050565b7f6f776e657220696e646578206973206f7574206f6620626f756e647321000000600082015250565b60006108dc601d83610895565b91506108e7826108a6565b602082019050919050565b6000602082019050818103600083015261090b816108cf565b9050919050565b7f4e487b7100000000000000000000000000000000000000000000000000000000600052603260045260246000fd5b7f676c6f62616c20696e646578206973206f7574206f6620626f756e6473210000600082015250565b6000610977601e83610895565b915061098282610941565b602082019050919050565b600060208201905081810360008301526109a68161096a565b9050919050565b7f4572726f723a20746f6b656e496420717565727920666f72206e6f6e2d65786960008201527f7374656e74206f776e6572000000000000000000000000000000000000000000602082015250565b6000610a09602b83610895565b9150610a14826109ad565b604082019050919050565b60006020820190508181036000830152610a38816109fc565b9050919050565b7f4572726f723a206f776e657220717565727920666f72206e6f6e2d657869737460008201527f656e7420746f6b656e0000000000000000000000000000000000000000000000602082015250565b6000610a9b602983610895565b9150610aa682610a3f565b604082019050919050565b60006020820190508181036000830152610aca81610a8e565b9050919050565b7f4572726f723a207472616e7366657220746f20746865207a65726f206164647260008201527f6573730000000000000000000000000000000000000000000000000000000000602082015250565b6000610b2d602383610895565b9150610b3882610ad1565b604082019050919050565b60006020820190508181036000830152610b5c81610b20565b9050919050565b7f4572726f723a207472616e736665722066726f6d20746865207a65726f20616460008201527f6472657373000000000000000000000000000000000000000000000000000000602082015250565b6000610bbf602583610895565b9150610bca82610b63565b604082019050919050565b60006020820190508181036000830152610bee81610bb2565b9050919050565b7f4572726f723a20747279696e6720746f207472616e73666572206120746f6b6560008201527f6e2061646472657373206f776e657220646f6573206e6f74206f776e00000000602082015250565b6000610c51603c83610895565b9150610c5c82610bf5565b604082019050919050565b60006020820190508181036000830152610c8081610c44565b9050919050565b7f4e487b7100000000000000000000000000000000000000000000000000000000600052601160045260246000fd5b6000610cc1826106bb565b9150610ccc836106bb565b925082821015610cdf57610cde610c87565b5b828203905092915050565b6000610cf5826106bb565b9150610d00836106bb565b9250827fffffffffffffffffffffffffffffffffffffffffffffffffffffffffffffffff03821115610d3557610d34610c87565b5b82820190509291505056fea2646970667358221220a7adf51c08a1ffd14494512179189d3287071f4e092280682a89bacd81a745c364736f6c634300080b0033",
  "immutableReferences": {},
  "source": "// SPDX-License-Identifier: MIT\npragma solidity ^0.8.0;\n\nimport './ERC721.sol';\n\ncontract ERC721Enumerable is ERC721 {\n\n    uint256[] private _allTokens;\n\n    // mapping from tokenId to position in _allTokens array\n    mapping(uint256 => uint256) private _allTokensIndex;\n\n    // mapping of owner to list of all owner token ids\n    mapping(address => uint256[]) private _ownedTokens;\n\n    // mapping from token ID to index of the owner tokens list\n    mapping(uint256 => uint256) private _ownedTokensIndex;\n\n    /// @notice Count NFTs tracked by this contract\n    /// @return A count of valid NFTs tracked by this contract, where each one of\n    ///  them has an assigned and queryable owner not equal to the zero address\n    function totalSupply() public view returns (uint256) {\n        return _allTokens.length;\n    }\n\n    /// @notice Enumerate valid NFTs\n    /// @dev Throws if `_index` >= `totalSupply()`.\n    /// @param _index A counter less than `totalSupply()`\n    /// @return The token identifier for the `_index`th NFT,\n    ///  (sort order not specified)\n    function tokenByIndex(uint256 _index) external view returns (uint256) {\n        require(_index < totalSupply(),'global index is out of bounds!');\n        return _allTokens[_index];\n    }\n\n    /// @notice Enumerate NFTs assigned to an owner\n    /// @dev Throws if `_index` >= `balanceOf(_owner)` or if\n    ///  `_owner` is the zero address, representing invalid NFTs.\n    /// @param _owner An address where we are interested in NFTs owned by them\n    /// @param _index A counter less than `balanceOf(_owner)`\n    /// @return The token identifier for the `_index`th NFT assigned to `_owner`,\n    ///   (sort order not specified)\n    function tokenOfOwnerByIndex(address _owner, uint256 _index) external view returns (uint256) {\n        require(_index < balanceOf(_owner),'owner index is out of bounds!');\n        return _ownedTokens[_owner][_index];\n    }\n\n    function _mint(address to, uint256 tokenId) internal override(ERC721) {\n        super._mint(to, tokenId);\n\n        // 2 things: A. add tokens to the owner\n        // B. all tokens to our totalsupply - to allTokens\n\n        _addTokensToAllTokenEnumeration(tokenId);\n        _addTokensToOwnerEnumeration(to, tokenId);\n    }\n\n    // add tokens to the _allTokens array and set the position of the tokens indexes\n    function _addTokensToAllTokenEnumeration(uint256 tokenId) private {\n        _allTokensIndex[tokenId] = _allTokens.length;\n        _allTokens.push(tokenId);\n    }\n\n    function _addTokensToOwnerEnumeration(address to, uint256 tokenId) private {\n        // 1. add address and token id to the _ownedTokens\n        _ownedTokens[to].push(tokenId);\n\n        // 2. ownedTokensIndex tokenId set to address of ownedTokens position\n        _ownedTokensIndex[tokenId] = _ownedTokens[to].length;\n\n        // 3. we want to execute this function with minting\n    }\n\n    // returns tokenByOwnerIndex\n}",
  "sourcePath": "/Users/nicholasnikas/Desktop/nft-marketplace-starter-kit/src/contracts/ERC721Enumerable.sol",
  "compiler": {
    "name": "solc",
    "version": "0.8.11+commit.d7f03943.Emscripten.clang"
  },
  "schemaVersion": "3.4.4",
  "updatedAt": "2022-01-08T01:06:24.038Z",
  "devdoc": {
    "kind": "dev",
    "methods": {
      "balanceOf(address)": {
        "details": "NFTs assigned to the zero address are considered invalid, and this  function throws for queries about the zero address.",
        "params": {
          "_owner": "An address for whom to query the balance"
        },
        "returns": {
          "_0": "The number of NFTs owned by `_owner`, possibly zero"
        }
      },
      "ownerOf(uint256)": {
        "details": "NFTs assigned to zero address are considered invalid, and queries  about them do throw.",
        "params": {
          "_tokenId": "The identifier for an NFT"
        },
        "returns": {
          "_0": "The address of the owner of the NFT"
        }
      },
      "tokenByIndex(uint256)": {
        "details": "Throws if `_index` >= `totalSupply()`.",
        "params": {
          "_index": "A counter less than `totalSupply()`"
        },
        "returns": {
          "_0": "The token identifier for the `_index`th NFT,  (sort order not specified)"
        }
      },
      "tokenOfOwnerByIndex(address,uint256)": {
        "details": "Throws if `_index` >= `balanceOf(_owner)` or if  `_owner` is the zero address, representing invalid NFTs.",
        "params": {
          "_index": "A counter less than `balanceOf(_owner)`",
          "_owner": "An address where we are interested in NFTs owned by them"
        },
        "returns": {
          "_0": "The token identifier for the `_index`th NFT assigned to `_owner`,   (sort order not specified)"
        }
      },
      "totalSupply()": {
        "returns": {
          "_0": "A count of valid NFTs tracked by this contract, where each one of  them has an assigned and queryable owner not equal to the zero address"
        }
      }
    },
    "version": 1
  },
  "userdoc": {
    "kind": "user",
    "methods": {
      "balanceOf(address)": {
        "notice": "Count all NFTs assigned to an owner"
      },
      "ownerOf(uint256)": {
        "notice": "Find the owner of an NFT"
      },
      "tokenByIndex(uint256)": {
        "notice": "Enumerate valid NFTs"
      },
      "tokenOfOwnerByIndex(address,uint256)": {
        "notice": "Enumerate NFTs assigned to an owner"
      },
      "totalSupply()": {
        "notice": "Count NFTs tracked by this contract"
      }
    },
    "version": 1
  }
}