{
  "contractName": "ERC721Connector",
  "abi": [
    {
      "inputs": [
        {
          "internalType": "string",
          "name": "name",
          "type": "string"
        },
        {
          "internalType": "string",
          "name": "symbol",
          "type": "string"
        }
      ],
      "stateMutability": "nonpayable",
      "type": "constructor"
    },
    {
      "anonymous": false,
      "inputs": [
        {
          "indexed": true,
          "internalType": "address",
          "name": "_owner",
          "type": "address"
        },
        {
          "indexed": true,
          "internalType": "address",
          "name": "_approved",
          "type": "address"
        },
        {
          "indexed": true,
          "internalType": "uint256",
          "name": "_tokenId",
          "type": "uint256"
        }
      ],
      "name": "Approval",
      "type": "event"
    },
    {
      "anonymous": false,
      "inputs": [
        {
          "indexed": true,
          "internalType": "address",
          "name": "_from",
          "type": "address"
        },
        {
          "indexed": true,
          "internalType": "address",
          "name": "_to",
          "type": "address"
        },
        {
          "indexed": true,
          "internalType": "uint256",
          "name": "_tokenId",
          "type": "uint256"
        }
      ],
      "name": "Transfer",
      "type": "event"
    },
    {
      "inputs": [
        {
          "internalType": "address",
          "name": "_to",
          "type": "address"
        },
        {
          "internalType": "uint256",
          "name": "tokenId",
          "type": "uint256"
        }
      ],
      "name": "approve",
      "outputs": [],
      "stateMutability": "nonpayable",
      "type": "function"
    },
    {
      "inputs": [
        {
          "internalType": "address",
          "name": "_owner",
          "type": "address"
        }
      ],
      "name": "balanceOf",
      "outputs": [
        {
          "internalType": "uint256",
          "name": "",
          "type": "uint256"
        }
      ],
      "stateMutability": "view",
      "type": "function"
    },
    {
      "inputs": [
        {
          "internalType": "uint256",
          "name": "tokenId",
          "type": "uint256"
        }
      ],
      "name": "getApproved",
      "outputs": [
        {
          "internalType": "address",
          "name": "",
          "type": "address"
        }
      ],
      "stateMutability": "view",
      "type": "function"
    },
    {
      "inputs": [],
      "name": "name",
      "outputs": [
        {
          "internalType": "string",
          "name": "",
          "type": "string"
        }
      ],
      "stateMutability": "view",
      "type": "function"
    },
    {
      "inputs": [
        {
          "internalType": "uint256",
          "name": "_tokenId",
          "type": "uint256"
        }
      ],
      "name": "ownerOf",
      "outputs": [
        {
          "internalType": "address",
          "name": "",
          "type": "address"
        }
      ],
      "stateMutability": "view",
      "type": "function"
    },
    {
      "inputs": [
        {
          "internalType": "bytes4",
          "name": "interfaceId",
          "type": "bytes4"
        }
      ],
      "name": "supportsInterface",
      "outputs": [
        {
          "internalType": "bool",
          "name": "",
          "type": "bool"
        }
      ],
      "stateMutability": "view",
      "type": "function"
    },
    {
      "inputs": [],
      "name": "symbol",
      "outputs": [
        {
          "internalType": "string",
          "name": "",
          "type": "string"
        }
      ],
      "stateMutability": "view",
      "type": "function"
    },
    {
      "inputs": [
        {
          "internalType": "uint256",
          "name": "_index",
          "type": "uint256"
        }
      ],
      "name": "tokenByIndex",
      "outputs": [
        {
          "internalType": "uint256",
          "name": "",
          "type": "uint256"
        }
      ],
      "stateMutability": "view",
      "type": "function"
    },
    {
      "inputs": [
        {
          "internalType": "address",
          "name": "_owner",
          "type": "address"
        },
        {
          "internalType": "uint256",
          "name": "_index",
          "type": "uint256"
        }
      ],
      "name": "tokenOfOwnerByIndex",
      "outputs": [
        {
          "internalType": "uint256",
          "name": "",
          "type": "uint256"
        }
      ],
      "stateMutability": "view",
      "type": "function"
    },
    {
      "inputs": [],
      "name": "totalSupply",
      "outputs": [
        {
          "internalType": "uint256",
          "name": "",
          "type": "uint256"
        }
      ],
      "stateMutability": "view",
      "type": "function"
    },
    {
      "inputs": [
        {
          "internalType": "address",
          "name": "_from",
          "type": "address"
        },
        {
          "internalType": "address",
          "name": "_to",
          "type": "address"
        },
        {
          "internalType": "uint256",
          "name": "_tokenId",
          "type": "uint256"
        }
      ],
      "name": "transferFrom",
      "outputs": [],
      "stateMutability": "nonpayable",
      "type": "function"
    }
  ],
  "bytecode": "0x60806040523480156200001157600080fd5b5060405162001e4638038062001e46833981810160405281019062000037919062000508565b81816200006a7f01ffc9a7a5cef8baa21ed3c5c0d7e23accb804b619e9333b597f47a0d84076e2620001e360201b60201c565b816001908051906020019062000082929190620002bb565b5080600290805190602001906200009b929190620002bb565b50620000ef7f13b182f4c0e5b2efbac0efe6cf6d756c8b89f4b79c5707a043ed9ea740574ee97f7feaf19471f34a12a7eaf32d5f3090aa2260ea8624dc8a138e74e0bf0f62307618620001e360201b60201c565b5050620001667f22c82707ba960a14c7592ffb6b8cfaa073fed0048a84cc7fa41f6b5bd8e7f2e47f3a6eb71757dfc6e784c1459d26270140c2c147d95ca985c80026fc5301c3eca17f8a7e378434598edc36d108689a030cbc9d7d465de4f74c71bae1028eed6a881b1818620001e360201b60201c565b620001db7f8230223f691b981717299fae9549350a0d894555723531f02108b1f522c1a7977f6da5e1284143cdd2d15038a59bde3be031250f00291d64494c12d967b3a4e0c37fc53637662700e6c65104059db8bba34439e0c32483ab7c34e3ccae52c73954951818620001e360201b60201c565b505062000675565b63ffffffff60e01b817bffffffffffffffffffffffffffffffffffffffffffffffffffffffff191614156200024f576040517f08c379a00000000000000000000000000000000000000000000000000000000081526004016200024690620005ee565b60405180910390fd5b6001600080837bffffffffffffffffffffffffffffffffffffffffffffffffffffffff19167bffffffffffffffffffffffffffffffffffffffffffffffffffffffff1916815260200190815260200160002060006101000a81548160ff02191690831515021790555050565b828054620002c9906200063f565b90600052602060002090601f016020900481019282620002ed576000855562000339565b82601f106200030857805160ff191683800117855562000339565b8280016001018555821562000339579182015b82811115620003385782518255916020019190600101906200031b565b5b5090506200034891906200034c565b5090565b5b80821115620003675760008160009055506001016200034d565b5090565b6000604051905090565b600080fd5b600080fd5b600080fd5b600080fd5b6000601f19601f8301169050919050565b7f4e487b7100000000000000000000000000000000000000000000000000000000600052604160045260246000fd5b620003d48262000389565b810181811067ffffffffffffffff82111715620003f657620003f56200039a565b5b80604052505050565b60006200040b6200036b565b9050620004198282620003c9565b919050565b600067ffffffffffffffff8211156200043c576200043b6200039a565b5b620004478262000389565b9050602081019050919050565b60005b838110156200047457808201518184015260208101905062000457565b8381111562000484576000848401525b50505050565b6000620004a16200049b846200041e565b620003ff565b905082815260208101848484011115620004c057620004bf62000384565b5b620004cd84828562000454565b509392505050565b600082601f830112620004ed57620004ec6200037f565b5b8151620004ff8482602086016200048a565b91505092915050565b6000806040838503121562000522576200052162000375565b5b600083015167ffffffffffffffff8111156200054357620005426200037a565b5b6200055185828601620004d5565b925050602083015167ffffffffffffffff8111156200057557620005746200037a565b5b6200058385828601620004d5565b9150509250929050565b600082825260208201905092915050565b7f496e76616c696420696e74657266616365207265717565737400000000000000600082015250565b6000620005d66019836200058d565b9150620005e3826200059e565b602082019050919050565b600060208201905081810360008301526200060981620005c7565b9050919050565b7f4e487b7100000000000000000000000000000000000000000000000000000000600052602260045260246000fd5b600060028204905060018216806200065857607f821691505b602082108114156200066f576200066e62000610565b5b50919050565b6117c180620006856000396000f3fe608060405234801561001057600080fd5b50600436106100a95760003560e01c806323b872dd1161007157806323b872dd146101665780632f745c59146101825780634f6ccce7146101b25780636352211e146101e257806370a082311461021257806395d89b4114610242576100a9565b806301ffc9a7146100ae57806306fdde03146100de578063081812fc146100fc578063095ea7b31461012c57806318160ddd14610148575b600080fd5b6100c860048036038101906100c39190610dc7565b610260565b6040516100d59190610e0f565b60405180910390f35b6100e66102c7565b6040516100f39190610ec3565b60405180910390f35b61011660048036038101906101119190610f1b565b610359565b6040516101239190610f89565b60405180910390f35b61014660048036038101906101419190610fd0565b6103de565b005b6101506103ec565b60405161015d919061101f565b60405180910390f35b610180600480360381019061017b919061103a565b6103f9565b005b61019c60048036038101906101979190610fd0565b610426565b6040516101a9919061101f565b60405180910390f35b6101cc60048036038101906101c79190610f1b565b6104d6565b6040516101d9919061101f565b60405180910390f35b6101fc60048036038101906101f79190610f1b565b610547565b6040516102099190610f89565b60405180910390f35b61022c6004803603810190610227919061108d565b6105f9565b604051610239919061101f565b60405180910390f35b61024a6106b8565b6040516102579190610ec3565b60405180910390f35b6000806000837bffffffffffffffffffffffffffffffffffffffffffffffffffffffff19167bffffffffffffffffffffffffffffffffffffffffffffffffffffffff1916815260200190815260200160002060009054906101000a900460ff169050919050565b6060600180546102d6906110e9565b80601f0160208091040260200160405190810160405280929190818152602001828054610302906110e9565b801561034f5780601f106103245761010080835404028352916020019161034f565b820191906000526020600020905b81548152906001019060200180831161033257829003601f168201915b5050505050905090565b60006103648261074a565b6103a3576040517f08c379a000000000000000000000000000000000000000000000000000000000815260040161039a90611167565b60405180910390fd5b6005600083815260200190815260200160002060009054906101000a900473ffffffffffffffffffffffffffffffffffffffff169050919050565b6103e882826107bc565b5050565b6000600680549050905090565b61040382826103de565b61040d3382610958565b61041657600080fd5b610421838383610a25565b505050565b6000610431836105f9565b8210610472576040517f08c379a0000000000000000000000000000000000000000000000000000000008152600401610469906111d3565b60405180910390fd5b600860008473ffffffffffffffffffffffffffffffffffffffff1673ffffffffffffffffffffffffffffffffffffffff16815260200190815260200160002082815481106104c3576104c26111f3565b5b9060005260206000200154905092915050565b60006104e06103ec565b8210610521576040517f08c379a00000000000000000000000000000000000000000000000000000000081526004016105189061126e565b60405180910390fd5b60068281548110610535576105346111f3565b5b90600052602060002001549050919050565b6000806003600084815260200190815260200160002060009054906101000a900473ffffffffffffffffffffffffffffffffffffffff169050600073ffffffffffffffffffffffffffffffffffffffff168173ffffffffffffffffffffffffffffffffffffffff1614156105f0576040517f08c379a00000000000000000000000000000000000000000000000000000000081526004016105e790611300565b60405180910390fd5b80915050919050565b60008073ffffffffffffffffffffffffffffffffffffffff168273ffffffffffffffffffffffffffffffffffffffff16141561066a576040517f08c379a000000000000000000000000000000000000000000000000000000000815260040161066190611392565b60405180910390fd5b6106b1600460008473ffffffffffffffffffffffffffffffffffffffff1673ffffffffffffffffffffffffffffffffffffffff168152602001908152602001600020610cbb565b9050919050565b6060600280546106c7906110e9565b80601f01602080910402602001604051908101604052809291908181526020018280546106f3906110e9565b80156107405780601f1061071557610100808354040283529160200191610740565b820191906000526020600020905b81548152906001019060200180831161072357829003601f168201915b5050505050905090565b6000806003600084815260200190815260200160002060009054906101000a900473ffffffffffffffffffffffffffffffffffffffff169050600073ffffffffffffffffffffffffffffffffffffffff168173ffffffffffffffffffffffffffffffffffffffff161415915050919050565b60006107c782610547565b90508073ffffffffffffffffffffffffffffffffffffffff168373ffffffffffffffffffffffffffffffffffffffff161415610838576040517f08c379a000000000000000000000000000000000000000000000000000000000815260040161082f906113fe565b60405180910390fd5b8073ffffffffffffffffffffffffffffffffffffffff163373ffffffffffffffffffffffffffffffffffffffff16146108a6576040517f08c379a000000000000000000000000000000000000000000000000000000000815260040161089d90611490565b60405180910390fd5b826005600084815260200190815260200160002060006101000a81548173ffffffffffffffffffffffffffffffffffffffff021916908373ffffffffffffffffffffffffffffffffffffffff160217905550818373ffffffffffffffffffffffffffffffffffffffff168273ffffffffffffffffffffffffffffffffffffffff167f8c5be1e5ebec7d5bd14f71427d1e84f3dd0314c0f7b2291e5b200ac8c7c3b92560405160405180910390a4505050565b60006109638261074a565b6109a2576040517f08c379a000000000000000000000000000000000000000000000000000000000815260040161099990611167565b60405180910390fd5b60006109ad83610547565b90508073ffffffffffffffffffffffffffffffffffffffff168473ffffffffffffffffffffffffffffffffffffffff161480610a1c57508373ffffffffffffffffffffffffffffffffffffffff16610a0484610359565b73ffffffffffffffffffffffffffffffffffffffff16145b91505092915050565b600073ffffffffffffffffffffffffffffffffffffffff168273ffffffffffffffffffffffffffffffffffffffff161415610a95576040517f08c379a0000000000000000000000000000000000000000000000000000000008152600401610a8c90611522565b60405180910390fd5b600073ffffffffffffffffffffffffffffffffffffffff168373ffffffffffffffffffffffffffffffffffffffff161415610b05576040517f08c379a0000000000000000000000000000000000000000000000000000000008152600401610afc906115b4565b60405180910390fd5b8273ffffffffffffffffffffffffffffffffffffffff16610b2582610547565b73ffffffffffffffffffffffffffffffffffffffff1614610b7b576040517f08c379a0000000000000000000000000000000000000000000000000000000008152600401610b7290611646565b60405180910390fd5b816003600083815260200190815260200160002060006101000a81548173ffffffffffffffffffffffffffffffffffffffff021916908373ffffffffffffffffffffffffffffffffffffffff160217905550610c14600460008573ffffffffffffffffffffffffffffffffffffffff1673ffffffffffffffffffffffffffffffffffffffff168152602001908152602001600020610cc9565b610c5b600460008473ffffffffffffffffffffffffffffffffffffffff1673ffffffffffffffffffffffffffffffffffffffff168152602001908152602001600020610cec565b808273ffffffffffffffffffffffffffffffffffffffff168473ffffffffffffffffffffffffffffffffffffffff167fddf252ad1be2c89b69c2b068fc378daa952ba7f163c4a11628f55a4df523b3ef60405160405180910390a4505050565b600081600001549050919050565b610ce160018260000154610d0b90919063ffffffff16565b816000018190555050565b6001816000016000828254610d019190611695565b9250508190555050565b600082821115610d50576040517f08c379a0000000000000000000000000000000000000000000000000000000008152600401610d4790611737565b60405180910390fd5b60008284610d5e9190611757565b90508091505092915050565b600080fd5b60007fffffffff0000000000000000000000000000000000000000000000000000000082169050919050565b610da481610d6f565b8114610daf57600080fd5b50565b600081359050610dc181610d9b565b92915050565b600060208284031215610ddd57610ddc610d6a565b5b6000610deb84828501610db2565b91505092915050565b60008115159050919050565b610e0981610df4565b82525050565b6000602082019050610e246000830184610e00565b92915050565b600081519050919050565b600082825260208201905092915050565b60005b83811015610e64578082015181840152602081019050610e49565b83811115610e73576000848401525b50505050565b6000601f19601f8301169050919050565b6000610e9582610e2a565b610e9f8185610e35565b9350610eaf818560208601610e46565b610eb881610e79565b840191505092915050565b60006020820190508181036000830152610edd8184610e8a565b905092915050565b6000819050919050565b610ef881610ee5565b8114610f0357600080fd5b50565b600081359050610f1581610eef565b92915050565b600060208284031215610f3157610f30610d6a565b5b6000610f3f84828501610f06565b91505092915050565b600073ffffffffffffffffffffffffffffffffffffffff82169050919050565b6000610f7382610f48565b9050919050565b610f8381610f68565b82525050565b6000602082019050610f9e6000830184610f7a565b92915050565b610fad81610f68565b8114610fb857600080fd5b50565b600081359050610fca81610fa4565b92915050565b60008060408385031215610fe757610fe6610d6a565b5b6000610ff585828601610fbb565b925050602061100685828601610f06565b9150509250929050565b61101981610ee5565b82525050565b60006020820190506110346000830184611010565b92915050565b60008060006060848603121561105357611052610d6a565b5b600061106186828701610fbb565b935050602061107286828701610fbb565b925050604061108386828701610f06565b9150509250925092565b6000602082840312156110a3576110a2610d6a565b5b60006110b184828501610fbb565b91505092915050565b7f4e487b7100000000000000000000000000000000000000000000000000000000600052602260045260246000fd5b6000600282049050600182168061110157607f821691505b60208210811415611115576111146110ba565b5b50919050565b7f4572726f723a20746f6b656e20646f6573206e6f742065786973740000000000600082015250565b6000611151601b83610e35565b915061115c8261111b565b602082019050919050565b6000602082019050818103600083015261118081611144565b9050919050565b7f6f776e657220696e646578206973206f7574206f6620626f756e647321000000600082015250565b60006111bd601d83610e35565b91506111c882611187565b602082019050919050565b600060208201905081810360008301526111ec816111b0565b9050919050565b7f4e487b7100000000000000000000000000000000000000000000000000000000600052603260045260246000fd5b7f676c6f62616c20696e646578206973206f7574206f6620626f756e6473210000600082015250565b6000611258601e83610e35565b915061126382611222565b602082019050919050565b600060208201905081810360008301526112878161124b565b9050919050565b7f4572726f723a20746f6b656e496420717565727920666f72206e6f6e2d65786960008201527f7374656e74206f776e6572000000000000000000000000000000000000000000602082015250565b60006112ea602b83610e35565b91506112f58261128e565b604082019050919050565b60006020820190508181036000830152611319816112dd565b9050919050565b7f4572726f723a206f776e657220717565727920666f72206e6f6e2d657869737460008201527f656e7420746f6b656e0000000000000000000000000000000000000000000000602082015250565b600061137c602983610e35565b915061138782611320565b604082019050919050565b600060208201905081810360008301526113ab8161136f565b9050919050565b7f4572726f723a20617070726f76616c20746f2063757272656e74206f776e6572600082015250565b60006113e8602083610e35565b91506113f3826113b2565b602082019050919050565b60006020820190508181036000830152611417816113db565b9050919050565b7f4572726f723a2063757272656e742063616c6c6572206973206e6f742074686560008201527f206f776e6572206f662074686520746f6b656e00000000000000000000000000602082015250565b600061147a603383610e35565b91506114858261141e565b604082019050919050565b600060208201905081810360008301526114a98161146d565b9050919050565b7f4572726f723a207472616e7366657220746f20746865207a65726f206164647260008201527f6573730000000000000000000000000000000000000000000000000000000000602082015250565b600061150c602383610e35565b9150611517826114b0565b604082019050919050565b6000602082019050818103600083015261153b816114ff565b9050919050565b7f4572726f723a207472616e736665722066726f6d20746865207a65726f20616460008201527f6472657373000000000000000000000000000000000000000000000000000000602082015250565b600061159e602583610e35565b91506115a982611542565b604082019050919050565b600060208201905081810360008301526115cd81611591565b9050919050565b7f4572726f723a20747279696e6720746f207472616e73666572206120746f6b6560008201527f6e2061646472657373206f776e657220646f6573206e6f74206f776e00000000602082015250565b6000611630603c83610e35565b915061163b826115d4565b604082019050919050565b6000602082019050818103600083015261165f81611623565b9050919050565b7f4e487b7100000000000000000000000000000000000000000000000000000000600052601160045260246000fd5b60006116a082610ee5565b91506116ab83610ee5565b9250827fffffffffffffffffffffffffffffffffffffffffffffffffffffffffffffffff038211156116e0576116df611666565b5b828201905092915050565b7f536166654d6174683a205375627472616374696f6e204f766572666c6f772100600082015250565b6000611721601f83610e35565b915061172c826116eb565b602082019050919050565b6000602082019050818103600083015261175081611714565b9050919050565b600061176282610ee5565b915061176d83610ee5565b9250828210156117805761177f611666565b5b82820390509291505056fea26469706673582212207bd3321d3a1a7efaeddbee14cba60b369b02647d8f7fd51251071ab692a53b5064736f6c634300080b0033",
  "immutableReferences": {},
  "source": "// SPDX-License-Identifier: MIT\npragma solidity ^0.8.0;\n\nimport './ERC721Metadata.sol';\nimport './ERC721Enumerable.sol';\n\ncontract ERC721Connector is ERC721Metadata, ERC721Enumerable {\n\n    // we deploy connector right away\n    // we want to carry the metadata info over\n\n    constructor(string memory name, string memory symbol) ERC721Metadata(name, symbol) {}\n}",
  "sourcePath": "/Users/nicholasnikas/Desktop/nft-marketplace-starter-kit/src/contracts/ERC721Connector.sol",
  "compiler": {
    "name": "solc",
    "version": "0.8.11+commit.d7f03943.Emscripten.clang"
  },
  "schemaVersion": "3.4.4",
  "updatedAt": "2022-01-18T01:17:22.284Z",
  "devdoc": {
    "kind": "dev",
    "methods": {
      "balanceOf(address)": {
        "details": "NFTs assigned to the zero address are considered invalid, and this  function throws for queries about the zero address.",
        "params": {
          "_owner": "An address for whom to query the balance"
        },
        "returns": {
          "_0": "The number of NFTs owned by `_owner`, possibly zero"
        }
      },
      "ownerOf(uint256)": {
        "details": "NFTs assigned to zero address are considered invalid, and queries  about them do throw.",
        "params": {
          "_tokenId": "The identifier for an NFT"
        },
        "returns": {
          "_0": "The address of the owner of the NFT"
        }
      },
      "tokenByIndex(uint256)": {
        "details": "Throws if `_index` >= `totalSupply()`.",
        "params": {
          "_index": "A counter less than `totalSupply()`"
        },
        "returns": {
          "_0": "The token identifier for the `_index`th NFT,  (sort order not specified)"
        }
      },
      "tokenOfOwnerByIndex(address,uint256)": {
        "details": "Throws if `_index` >= `balanceOf(_owner)` or if  `_owner` is the zero address, representing invalid NFTs.",
        "params": {
          "_index": "A counter less than `balanceOf(_owner)`",
          "_owner": "An address where we are interested in NFTs owned by them"
        },
        "returns": {
          "_0": "The token identifier for the `_index`th NFT assigned to `_owner`,   (sort order not specified)"
        }
      },
      "totalSupply()": {
        "returns": {
          "_0": "A count of valid NFTs tracked by this contract, where each one of  them has an assigned and queryable owner not equal to the zero address"
        }
      },
      "transferFrom(address,address,uint256)": {
        "details": "Throws unless `msg.sender` is the current owner, an authorized  operator, or the approved address for this NFT. Throws if `_from` is  not the current owner. Throws if `_to` is the zero address. Throws if  `_tokenId` is not a valid NFT.",
        "params": {
          "_from": "The current owner of the NFT",
          "_to": "The new owner",
          "_tokenId": "The NFT to transfer"
        }
      }
    },
    "version": 1
  },
  "userdoc": {
    "kind": "user",
    "methods": {
      "balanceOf(address)": {
        "notice": "Count all NFTs assigned to an owner"
      },
      "name()": {
        "notice": "A descriptive name for a collection of NFTs in this contract"
      },
      "ownerOf(uint256)": {
        "notice": "Find the owner of an NFT"
      },
      "symbol()": {
        "notice": "An abbreviated name for NFTs in this contract"
      },
      "tokenByIndex(uint256)": {
        "notice": "Enumerate valid NFTs"
      },
      "tokenOfOwnerByIndex(address,uint256)": {
        "notice": "Enumerate NFTs assigned to an owner"
      },
      "totalSupply()": {
        "notice": "Count NFTs tracked by this contract"
      },
      "transferFrom(address,address,uint256)": {
        "notice": "Transfer ownership of an NFT -- THE CALLER IS RESPONSIBLE  TO CONFIRM THAT `_to` IS CAPABLE OF RECEIVING NFTS OR ELSE  THEY MAY BE PERMANENTLY LOST"
      }
    },
    "version": 1
  }
}