{
  "contractName": "ERC721Connector",
  "abi": [
    {
      "inputs": [
        {
          "internalType": "string",
          "name": "name",
          "type": "string"
        },
        {
          "internalType": "string",
          "name": "symbol",
          "type": "string"
        }
      ],
      "stateMutability": "nonpayable",
      "type": "constructor"
    },
    {
      "anonymous": false,
      "inputs": [
        {
          "indexed": true,
          "internalType": "address",
          "name": "_owner",
          "type": "address"
        },
        {
          "indexed": true,
          "internalType": "address",
          "name": "_approved",
          "type": "address"
        },
        {
          "indexed": true,
          "internalType": "uint256",
          "name": "_tokenId",
          "type": "uint256"
        }
      ],
      "name": "Approval",
      "type": "event"
    },
    {
      "anonymous": false,
      "inputs": [
        {
          "indexed": true,
          "internalType": "address",
          "name": "_from",
          "type": "address"
        },
        {
          "indexed": true,
          "internalType": "address",
          "name": "_to",
          "type": "address"
        },
        {
          "indexed": true,
          "internalType": "uint256",
          "name": "_tokenId",
          "type": "uint256"
        }
      ],
      "name": "Transfer",
      "type": "event"
    },
    {
      "inputs": [
        {
          "internalType": "address",
          "name": "_to",
          "type": "address"
        },
        {
          "internalType": "uint256",
          "name": "tokenId",
          "type": "uint256"
        }
      ],
      "name": "approve",
      "outputs": [],
      "stateMutability": "nonpayable",
      "type": "function"
    },
    {
      "inputs": [
        {
          "internalType": "address",
          "name": "_owner",
          "type": "address"
        }
      ],
      "name": "balanceOf",
      "outputs": [
        {
          "internalType": "uint256",
          "name": "",
          "type": "uint256"
        }
      ],
      "stateMutability": "view",
      "type": "function"
    },
    {
      "inputs": [
        {
          "internalType": "uint256",
          "name": "tokenId",
          "type": "uint256"
        }
      ],
      "name": "getApproved",
      "outputs": [
        {
          "internalType": "address",
          "name": "",
          "type": "address"
        }
      ],
      "stateMutability": "view",
      "type": "function"
    },
    {
      "inputs": [],
      "name": "name",
      "outputs": [
        {
          "internalType": "string",
          "name": "",
          "type": "string"
        }
      ],
      "stateMutability": "view",
      "type": "function"
    },
    {
      "inputs": [
        {
          "internalType": "uint256",
          "name": "_tokenId",
          "type": "uint256"
        }
      ],
      "name": "ownerOf",
      "outputs": [
        {
          "internalType": "address",
          "name": "",
          "type": "address"
        }
      ],
      "stateMutability": "view",
      "type": "function"
    },
    {
      "inputs": [
        {
          "internalType": "bytes4",
          "name": "interfaceId",
          "type": "bytes4"
        }
      ],
      "name": "supportsInterface",
      "outputs": [
        {
          "internalType": "bool",
          "name": "",
          "type": "bool"
        }
      ],
      "stateMutability": "view",
      "type": "function"
    },
    {
      "inputs": [],
      "name": "symbol",
      "outputs": [
        {
          "internalType": "string",
          "name": "",
          "type": "string"
        }
      ],
      "stateMutability": "view",
      "type": "function"
    },
    {
      "inputs": [
        {
          "internalType": "uint256",
          "name": "_index",
          "type": "uint256"
        }
      ],
      "name": "tokenByIndex",
      "outputs": [
        {
          "internalType": "uint256",
          "name": "",
          "type": "uint256"
        }
      ],
      "stateMutability": "view",
      "type": "function"
    },
    {
      "inputs": [
        {
          "internalType": "address",
          "name": "_owner",
          "type": "address"
        },
        {
          "internalType": "uint256",
          "name": "_index",
          "type": "uint256"
        }
      ],
      "name": "tokenOfOwnerByIndex",
      "outputs": [
        {
          "internalType": "uint256",
          "name": "",
          "type": "uint256"
        }
      ],
      "stateMutability": "view",
      "type": "function"
    },
    {
      "inputs": [],
      "name": "totalSupply",
      "outputs": [
        {
          "internalType": "uint256",
          "name": "",
          "type": "uint256"
        }
      ],
      "stateMutability": "view",
      "type": "function"
    },
    {
      "inputs": [
        {
          "internalType": "address",
          "name": "_from",
          "type": "address"
        },
        {
          "internalType": "address",
          "name": "_to",
          "type": "address"
        },
        {
          "internalType": "uint256",
          "name": "_tokenId",
          "type": "uint256"
        }
      ],
      "name": "transferFrom",
      "outputs": [],
      "stateMutability": "nonpayable",
      "type": "function"
    }
  ],
  "bytecode": "0x60806040523480156200001157600080fd5b5060405162001d4438038062001d44833981810160405281019062000037919062000508565b81816200006a7f01ffc9a7a5cef8baa21ed3c5c0d7e23accb804b619e9333b597f47a0d84076e2620001e360201b60201c565b816001908051906020019062000082929190620002bb565b5080600290805190602001906200009b929190620002bb565b50620000ef7f13b182f4c0e5b2efbac0efe6cf6d756c8b89f4b79c5707a043ed9ea740574ee97f7feaf19471f34a12a7eaf32d5f3090aa2260ea8624dc8a138e74e0bf0f62307618620001e360201b60201c565b5050620001667f22c82707ba960a14c7592ffb6b8cfaa073fed0048a84cc7fa41f6b5bd8e7f2e47f3a6eb71757dfc6e784c1459d26270140c2c147d95ca985c80026fc5301c3eca17f8a7e378434598edc36d108689a030cbc9d7d465de4f74c71bae1028eed6a881b1818620001e360201b60201c565b620001db7f8230223f691b981717299fae9549350a0d894555723531f02108b1f522c1a7977f6da5e1284143cdd2d15038a59bde3be031250f00291d64494c12d967b3a4e0c37fc53637662700e6c65104059db8bba34439e0c32483ab7c34e3ccae52c73954951818620001e360201b60201c565b505062000675565b63ffffffff60e01b817bffffffffffffffffffffffffffffffffffffffffffffffffffffffff191614156200024f576040517f08c379a00000000000000000000000000000000000000000000000000000000081526004016200024690620005ee565b60405180910390fd5b6001600080837bffffffffffffffffffffffffffffffffffffffffffffffffffffffff19167bffffffffffffffffffffffffffffffffffffffffffffffffffffffff1916815260200190815260200160002060006101000a81548160ff02191690831515021790555050565b828054620002c9906200063f565b90600052602060002090601f016020900481019282620002ed576000855562000339565b82601f106200030857805160ff191683800117855562000339565b8280016001018555821562000339579182015b82811115620003385782518255916020019190600101906200031b565b5b5090506200034891906200034c565b5090565b5b80821115620003675760008160009055506001016200034d565b5090565b6000604051905090565b600080fd5b600080fd5b600080fd5b600080fd5b6000601f19601f8301169050919050565b7f4e487b7100000000000000000000000000000000000000000000000000000000600052604160045260246000fd5b620003d48262000389565b810181811067ffffffffffffffff82111715620003f657620003f56200039a565b5b80604052505050565b60006200040b6200036b565b9050620004198282620003c9565b919050565b600067ffffffffffffffff8211156200043c576200043b6200039a565b5b620004478262000389565b9050602081019050919050565b60005b838110156200047457808201518184015260208101905062000457565b8381111562000484576000848401525b50505050565b6000620004a16200049b846200041e565b620003ff565b905082815260208101848484011115620004c057620004bf62000384565b5b620004cd84828562000454565b509392505050565b600082601f830112620004ed57620004ec6200037f565b5b8151620004ff8482602086016200048a565b91505092915050565b6000806040838503121562000522576200052162000375565b5b600083015167ffffffffffffffff8111156200054357620005426200037a565b5b6200055185828601620004d5565b925050602083015167ffffffffffffffff8111156200057557620005746200037a565b5b6200058385828601620004d5565b9150509250929050565b600082825260208201905092915050565b7f496e76616c696420696e74657266616365207265717565737400000000000000600082015250565b6000620005d66019836200058d565b9150620005e3826200059e565b602082019050919050565b600060208201905081810360008301526200060981620005c7565b9050919050565b7f4e487b7100000000000000000000000000000000000000000000000000000000600052602260045260246000fd5b600060028204905060018216806200065857607f821691505b602082108114156200066f576200066e62000610565b5b50919050565b6116bf80620006856000396000f3fe608060405234801561001057600080fd5b50600436106100a95760003560e01c806323b872dd1161007157806323b872dd146101665780632f745c59146101825780634f6ccce7146101b25780636352211e146101e257806370a082311461021257806395d89b4114610242576100a9565b806301ffc9a7146100ae57806306fdde03146100de578063081812fc146100fc578063095ea7b31461012c57806318160ddd14610148575b600080fd5b6100c860048036038101906100c39190610d31565b610260565b6040516100d59190610d79565b60405180910390f35b6100e66102c7565b6040516100f39190610e2d565b60405180910390f35b61011660048036038101906101119190610e85565b610359565b6040516101239190610ef3565b60405180910390f35b61014660048036038101906101419190610f3a565b6103de565b005b6101506103ec565b60405161015d9190610f89565b60405180910390f35b610180600480360381019061017b9190610fa4565b6103f9565b005b61019c60048036038101906101979190610f3a565b610426565b6040516101a99190610f89565b60405180910390f35b6101cc60048036038101906101c79190610e85565b6104d6565b6040516101d99190610f89565b60405180910390f35b6101fc60048036038101906101f79190610e85565b610547565b6040516102099190610ef3565b60405180910390f35b61022c60048036038101906102279190610ff7565b6105f9565b6040516102399190610f89565b60405180910390f35b61024a6106b1565b6040516102579190610e2d565b60405180910390f35b6000806000837bffffffffffffffffffffffffffffffffffffffffffffffffffffffff19167bffffffffffffffffffffffffffffffffffffffffffffffffffffffff1916815260200190815260200160002060009054906101000a900460ff169050919050565b6060600180546102d690611053565b80601f016020809104026020016040519081016040528092919081815260200182805461030290611053565b801561034f5780601f106103245761010080835404028352916020019161034f565b820191906000526020600020905b81548152906001019060200180831161033257829003601f168201915b5050505050905090565b600061036482610743565b6103a3576040517f08c379a000000000000000000000000000000000000000000000000000000000815260040161039a906110d1565b60405180910390fd5b6005600083815260200190815260200160002060009054906101000a900473ffffffffffffffffffffffffffffffffffffffff169050919050565b6103e882826107b5565b5050565b6000600680549050905090565b61040382826103de565b61040d3382610951565b61041657600080fd5b610421838383610a1e565b505050565b6000610431836105f9565b8210610472576040517f08c379a00000000000000000000000000000000000000000000000000000000081526004016104699061113d565b60405180910390fd5b600860008473ffffffffffffffffffffffffffffffffffffffff1673ffffffffffffffffffffffffffffffffffffffff16815260200190815260200160002082815481106104c3576104c261115d565b5b9060005260206000200154905092915050565b60006104e06103ec565b8210610521576040517f08c379a0000000000000000000000000000000000000000000000000000000008152600401610518906111d8565b60405180910390fd5b600682815481106105355761053461115d565b5b90600052602060002001549050919050565b6000806003600084815260200190815260200160002060009054906101000a900473ffffffffffffffffffffffffffffffffffffffff169050600073ffffffffffffffffffffffffffffffffffffffff168173ffffffffffffffffffffffffffffffffffffffff1614156105f0576040517f08c379a00000000000000000000000000000000000000000000000000000000081526004016105e79061126a565b60405180910390fd5b80915050919050565b60008073ffffffffffffffffffffffffffffffffffffffff168273ffffffffffffffffffffffffffffffffffffffff16141561066a576040517f08c379a0000000000000000000000000000000000000000000000000000000008152600401610661906112fc565b60405180910390fd5b600460008373ffffffffffffffffffffffffffffffffffffffff1673ffffffffffffffffffffffffffffffffffffffff168152602001908152602001600020549050919050565b6060600280546106c090611053565b80601f01602080910402602001604051908101604052809291908181526020018280546106ec90611053565b80156107395780601f1061070e57610100808354040283529160200191610739565b820191906000526020600020905b81548152906001019060200180831161071c57829003601f168201915b5050505050905090565b6000806003600084815260200190815260200160002060009054906101000a900473ffffffffffffffffffffffffffffffffffffffff169050600073ffffffffffffffffffffffffffffffffffffffff168173ffffffffffffffffffffffffffffffffffffffff161415915050919050565b60006107c082610547565b90508073ffffffffffffffffffffffffffffffffffffffff168373ffffffffffffffffffffffffffffffffffffffff161415610831576040517f08c379a000000000000000000000000000000000000000000000000000000000815260040161082890611368565b60405180910390fd5b8073ffffffffffffffffffffffffffffffffffffffff163373ffffffffffffffffffffffffffffffffffffffff161461089f576040517f08c379a0000000000000000000000000000000000000000000000000000000008152600401610896906113fa565b60405180910390fd5b826005600084815260200190815260200160002060006101000a81548173ffffffffffffffffffffffffffffffffffffffff021916908373ffffffffffffffffffffffffffffffffffffffff160217905550818373ffffffffffffffffffffffffffffffffffffffff168273ffffffffffffffffffffffffffffffffffffffff167f8c5be1e5ebec7d5bd14f71427d1e84f3dd0314c0f7b2291e5b200ac8c7c3b92560405160405180910390a4505050565b600061095c82610743565b61099b576040517f08c379a0000000000000000000000000000000000000000000000000000000008152600401610992906110d1565b60405180910390fd5b60006109a683610547565b90508073ffffffffffffffffffffffffffffffffffffffff168473ffffffffffffffffffffffffffffffffffffffff161480610a1557508373ffffffffffffffffffffffffffffffffffffffff166109fd84610359565b73ffffffffffffffffffffffffffffffffffffffff16145b91505092915050565b600073ffffffffffffffffffffffffffffffffffffffff168273ffffffffffffffffffffffffffffffffffffffff161415610a8e576040517f08c379a0000000000000000000000000000000000000000000000000000000008152600401610a859061148c565b60405180910390fd5b600073ffffffffffffffffffffffffffffffffffffffff168373ffffffffffffffffffffffffffffffffffffffff161415610afe576040517f08c379a0000000000000000000000000000000000000000000000000000000008152600401610af59061151e565b60405180910390fd5b8273ffffffffffffffffffffffffffffffffffffffff16610b1e82610547565b73ffffffffffffffffffffffffffffffffffffffff1614610b74576040517f08c379a0000000000000000000000000000000000000000000000000000000008152600401610b6b906115b0565b60405180910390fd5b816003600083815260200190815260200160002060006101000a81548173ffffffffffffffffffffffffffffffffffffffff021916908373ffffffffffffffffffffffffffffffffffffffff1602179055506001600460008573ffffffffffffffffffffffffffffffffffffffff1673ffffffffffffffffffffffffffffffffffffffff1681526020019081526020016000206000828254610c1691906115ff565b925050819055506001600460008473ffffffffffffffffffffffffffffffffffffffff1673ffffffffffffffffffffffffffffffffffffffff1681526020019081526020016000206000828254610c6d9190611633565b92505081905550808273ffffffffffffffffffffffffffffffffffffffff168473ffffffffffffffffffffffffffffffffffffffff167fddf252ad1be2c89b69c2b068fc378daa952ba7f163c4a11628f55a4df523b3ef60405160405180910390a4505050565b600080fd5b60007fffffffff0000000000000000000000000000000000000000000000000000000082169050919050565b610d0e81610cd9565b8114610d1957600080fd5b50565b600081359050610d2b81610d05565b92915050565b600060208284031215610d4757610d46610cd4565b5b6000610d5584828501610d1c565b91505092915050565b60008115159050919050565b610d7381610d5e565b82525050565b6000602082019050610d8e6000830184610d6a565b92915050565b600081519050919050565b600082825260208201905092915050565b60005b83811015610dce578082015181840152602081019050610db3565b83811115610ddd576000848401525b50505050565b6000601f19601f8301169050919050565b6000610dff82610d94565b610e098185610d9f565b9350610e19818560208601610db0565b610e2281610de3565b840191505092915050565b60006020820190508181036000830152610e478184610df4565b905092915050565b6000819050919050565b610e6281610e4f565b8114610e6d57600080fd5b50565b600081359050610e7f81610e59565b92915050565b600060208284031215610e9b57610e9a610cd4565b5b6000610ea984828501610e70565b91505092915050565b600073ffffffffffffffffffffffffffffffffffffffff82169050919050565b6000610edd82610eb2565b9050919050565b610eed81610ed2565b82525050565b6000602082019050610f086000830184610ee4565b92915050565b610f1781610ed2565b8114610f2257600080fd5b50565b600081359050610f3481610f0e565b92915050565b60008060408385031215610f5157610f50610cd4565b5b6000610f5f85828601610f25565b9250506020610f7085828601610e70565b9150509250929050565b610f8381610e4f565b82525050565b6000602082019050610f9e6000830184610f7a565b92915050565b600080600060608486031215610fbd57610fbc610cd4565b5b6000610fcb86828701610f25565b9350506020610fdc86828701610f25565b9250506040610fed86828701610e70565b9150509250925092565b60006020828403121561100d5761100c610cd4565b5b600061101b84828501610f25565b91505092915050565b7f4e487b7100000000000000000000000000000000000000000000000000000000600052602260045260246000fd5b6000600282049050600182168061106b57607f821691505b6020821081141561107f5761107e611024565b5b50919050565b7f4572726f723a20746f6b656e20646f6573206e6f742065786973740000000000600082015250565b60006110bb601b83610d9f565b91506110c682611085565b602082019050919050565b600060208201905081810360008301526110ea816110ae565b9050919050565b7f6f776e657220696e646578206973206f7574206f6620626f756e647321000000600082015250565b6000611127601d83610d9f565b9150611132826110f1565b602082019050919050565b600060208201905081810360008301526111568161111a565b9050919050565b7f4e487b7100000000000000000000000000000000000000000000000000000000600052603260045260246000fd5b7f676c6f62616c20696e646578206973206f7574206f6620626f756e6473210000600082015250565b60006111c2601e83610d9f565b91506111cd8261118c565b602082019050919050565b600060208201905081810360008301526111f1816111b5565b9050919050565b7f4572726f723a20746f6b656e496420717565727920666f72206e6f6e2d65786960008201527f7374656e74206f776e6572000000000000000000000000000000000000000000602082015250565b6000611254602b83610d9f565b915061125f826111f8565b604082019050919050565b6000602082019050818103600083015261128381611247565b9050919050565b7f4572726f723a206f776e657220717565727920666f72206e6f6e2d657869737460008201527f656e7420746f6b656e0000000000000000000000000000000000000000000000602082015250565b60006112e6602983610d9f565b91506112f18261128a565b604082019050919050565b60006020820190508181036000830152611315816112d9565b9050919050565b7f4572726f723a20617070726f76616c20746f2063757272656e74206f776e6572600082015250565b6000611352602083610d9f565b915061135d8261131c565b602082019050919050565b6000602082019050818103600083015261138181611345565b9050919050565b7f4572726f723a2063757272656e742063616c6c6572206973206e6f742074686560008201527f206f776e6572206f662074686520746f6b656e00000000000000000000000000602082015250565b60006113e4603383610d9f565b91506113ef82611388565b604082019050919050565b60006020820190508181036000830152611413816113d7565b9050919050565b7f4572726f723a207472616e7366657220746f20746865207a65726f206164647260008201527f6573730000000000000000000000000000000000000000000000000000000000602082015250565b6000611476602383610d9f565b91506114818261141a565b604082019050919050565b600060208201905081810360008301526114a581611469565b9050919050565b7f4572726f723a207472616e736665722066726f6d20746865207a65726f20616460008201527f6472657373000000000000000000000000000000000000000000000000000000602082015250565b6000611508602583610d9f565b9150611513826114ac565b604082019050919050565b60006020820190508181036000830152611537816114fb565b9050919050565b7f4572726f723a20747279696e6720746f207472616e73666572206120746f6b6560008201527f6e2061646472657373206f776e657220646f6573206e6f74206f776e00000000602082015250565b600061159a603c83610d9f565b91506115a58261153e565b604082019050919050565b600060208201905081810360008301526115c98161158d565b9050919050565b7f4e487b7100000000000000000000000000000000000000000000000000000000600052601160045260246000fd5b600061160a82610e4f565b915061161583610e4f565b925082821015611628576116276115d0565b5b828203905092915050565b600061163e82610e4f565b915061164983610e4f565b9250827fffffffffffffffffffffffffffffffffffffffffffffffffffffffffffffffff0382111561167e5761167d6115d0565b5b82820190509291505056fea2646970667358221220465fd0a0420ea5293286a18a5bf8d97a16732f7f8c883605d33f763f90b04af164736f6c634300080b0033",
  "immutableReferences": {},
  "source": "// SPDX-License-Identifier: MIT\npragma solidity ^0.8.0;\n\nimport './ERC721Metadata.sol';\nimport './ERC721Enumerable.sol';\n\ncontract ERC721Connector is ERC721Metadata, ERC721Enumerable {\n\n    // we deploy connector right away\n    // we want to carry the metadata info over\n\n    constructor(string memory name, string memory symbol) ERC721Metadata(name, symbol) {}\n}",
  "sourcePath": "/Users/nicholasnikas/Desktop/nft-marketplace-starter-kit/src/contracts/ERC721Connector.sol",
  "compiler": {
    "name": "solc",
    "version": "0.8.11+commit.d7f03943.Emscripten.clang"
  },
  "schemaVersion": "3.4.4",
  "updatedAt": "2022-01-10T07:13:04.295Z",
  "devdoc": {
    "kind": "dev",
    "methods": {
      "balanceOf(address)": {
        "details": "NFTs assigned to the zero address are considered invalid, and this  function throws for queries about the zero address.",
        "params": {
          "_owner": "An address for whom to query the balance"
        },
        "returns": {
          "_0": "The number of NFTs owned by `_owner`, possibly zero"
        }
      },
      "ownerOf(uint256)": {
        "details": "NFTs assigned to zero address are considered invalid, and queries  about them do throw.",
        "params": {
          "_tokenId": "The identifier for an NFT"
        },
        "returns": {
          "_0": "The address of the owner of the NFT"
        }
      },
      "tokenByIndex(uint256)": {
        "details": "Throws if `_index` >= `totalSupply()`.",
        "params": {
          "_index": "A counter less than `totalSupply()`"
        },
        "returns": {
          "_0": "The token identifier for the `_index`th NFT,  (sort order not specified)"
        }
      },
      "tokenOfOwnerByIndex(address,uint256)": {
        "details": "Throws if `_index` >= `balanceOf(_owner)` or if  `_owner` is the zero address, representing invalid NFTs.",
        "params": {
          "_index": "A counter less than `balanceOf(_owner)`",
          "_owner": "An address where we are interested in NFTs owned by them"
        },
        "returns": {
          "_0": "The token identifier for the `_index`th NFT assigned to `_owner`,   (sort order not specified)"
        }
      },
      "totalSupply()": {
        "returns": {
          "_0": "A count of valid NFTs tracked by this contract, where each one of  them has an assigned and queryable owner not equal to the zero address"
        }
      },
      "transferFrom(address,address,uint256)": {
        "details": "Throws unless `msg.sender` is the current owner, an authorized  operator, or the approved address for this NFT. Throws if `_from` is  not the current owner. Throws if `_to` is the zero address. Throws if  `_tokenId` is not a valid NFT.",
        "params": {
          "_from": "The current owner of the NFT",
          "_to": "The new owner",
          "_tokenId": "The NFT to transfer"
        }
      }
    },
    "version": 1
  },
  "userdoc": {
    "kind": "user",
    "methods": {
      "balanceOf(address)": {
        "notice": "Count all NFTs assigned to an owner"
      },
      "name()": {
        "notice": "A descriptive name for a collection of NFTs in this contract"
      },
      "ownerOf(uint256)": {
        "notice": "Find the owner of an NFT"
      },
      "symbol()": {
        "notice": "An abbreviated name for NFTs in this contract"
      },
      "tokenByIndex(uint256)": {
        "notice": "Enumerate valid NFTs"
      },
      "tokenOfOwnerByIndex(address,uint256)": {
        "notice": "Enumerate NFTs assigned to an owner"
      },
      "totalSupply()": {
        "notice": "Count NFTs tracked by this contract"
      },
      "transferFrom(address,address,uint256)": {
        "notice": "Transfer ownership of an NFT -- THE CALLER IS RESPONSIBLE  TO CONFIRM THAT `_to` IS CAPABLE OF RECEIVING NFTS OR ELSE  THEY MAY BE PERMANENTLY LOST"
      }
    },
    "version": 1
  }
}