{
  "contractName": "KryptoBird",
  "abi": [
    {
      "inputs": [],
      "stateMutability": "nonpayable",
      "type": "constructor"
    },
    {
      "anonymous": false,
      "inputs": [
        {
          "indexed": true,
          "internalType": "address",
          "name": "owner",
          "type": "address"
        },
        {
          "indexed": true,
          "internalType": "address",
          "name": "approved",
          "type": "address"
        },
        {
          "indexed": true,
          "internalType": "uint256",
          "name": "tokenId",
          "type": "uint256"
        }
      ],
      "name": "Approval",
      "type": "event"
    },
    {
      "anonymous": false,
      "inputs": [
        {
          "indexed": true,
          "internalType": "address",
          "name": "from",
          "type": "address"
        },
        {
          "indexed": true,
          "internalType": "address",
          "name": "to",
          "type": "address"
        },
        {
          "indexed": true,
          "internalType": "uint256",
          "name": "tokenId",
          "type": "uint256"
        }
      ],
      "name": "Transfer",
      "type": "event"
    },
    {
      "inputs": [
        {
          "internalType": "address",
          "name": "_to",
          "type": "address"
        },
        {
          "internalType": "uint256",
          "name": "tokenId",
          "type": "uint256"
        }
      ],
      "name": "approve",
      "outputs": [],
      "stateMutability": "nonpayable",
      "type": "function"
    },
    {
      "inputs": [
        {
          "internalType": "address",
          "name": "_owner",
          "type": "address"
        }
      ],
      "name": "balanceOf",
      "outputs": [
        {
          "internalType": "uint256",
          "name": "",
          "type": "uint256"
        }
      ],
      "stateMutability": "view",
      "type": "function",
      "constant": true
    },
    {
      "inputs": [
        {
          "internalType": "uint256",
          "name": "tokenId",
          "type": "uint256"
        }
      ],
      "name": "getApproved",
      "outputs": [
        {
          "internalType": "address",
          "name": "",
          "type": "address"
        }
      ],
      "stateMutability": "view",
      "type": "function",
      "constant": true
    },
    {
      "inputs": [
        {
          "internalType": "uint256",
          "name": "",
          "type": "uint256"
        }
      ],
      "name": "kryptoBirdz",
      "outputs": [
        {
          "internalType": "string",
          "name": "",
          "type": "string"
        }
      ],
      "stateMutability": "view",
      "type": "function",
      "constant": true
    },
    {
      "inputs": [],
      "name": "name",
      "outputs": [
        {
          "internalType": "string",
          "name": "",
          "type": "string"
        }
      ],
      "stateMutability": "view",
      "type": "function",
      "constant": true
    },
    {
      "inputs": [
        {
          "internalType": "uint256",
          "name": "_tokenId",
          "type": "uint256"
        }
      ],
      "name": "ownerOf",
      "outputs": [
        {
          "internalType": "address",
          "name": "",
          "type": "address"
        }
      ],
      "stateMutability": "view",
      "type": "function",
      "constant": true
    },
    {
      "inputs": [],
      "name": "symbol",
      "outputs": [
        {
          "internalType": "string",
          "name": "",
          "type": "string"
        }
      ],
      "stateMutability": "view",
      "type": "function",
      "constant": true
    },
    {
      "inputs": [
        {
          "internalType": "uint256",
          "name": "_index",
          "type": "uint256"
        }
      ],
      "name": "tokenByIndex",
      "outputs": [
        {
          "internalType": "uint256",
          "name": "",
          "type": "uint256"
        }
      ],
      "stateMutability": "view",
      "type": "function",
      "constant": true
    },
    {
      "inputs": [
        {
          "internalType": "address",
          "name": "_owner",
          "type": "address"
        },
        {
          "internalType": "uint256",
          "name": "_index",
          "type": "uint256"
        }
      ],
      "name": "tokenOfOwnerByIndex",
      "outputs": [
        {
          "internalType": "uint256",
          "name": "",
          "type": "uint256"
        }
      ],
      "stateMutability": "view",
      "type": "function",
      "constant": true
    },
    {
      "inputs": [],
      "name": "totalSupply",
      "outputs": [
        {
          "internalType": "uint256",
          "name": "",
          "type": "uint256"
        }
      ],
      "stateMutability": "view",
      "type": "function",
      "constant": true
    },
    {
      "inputs": [
        {
          "internalType": "address",
          "name": "_from",
          "type": "address"
        },
        {
          "internalType": "address",
          "name": "_to",
          "type": "address"
        },
        {
          "internalType": "uint256",
          "name": "_tokenId",
          "type": "uint256"
        }
      ],
      "name": "transferFrom",
      "outputs": [],
      "stateMutability": "nonpayable",
      "type": "function"
    },
    {
      "inputs": [
        {
          "internalType": "string",
          "name": "_kryptoBird",
          "type": "string"
        }
      ],
      "name": "mint",
      "outputs": [],
      "stateMutability": "nonpayable",
      "type": "function"
    }
  ],
  "bytecode": "0x60806040523480156200001157600080fd5b506040518060400160405280600a81526020017f4b727970746f42697264000000000000000000000000000000000000000000008152506040518060400160405280600681526020017f4b424952445a00000000000000000000000000000000000000000000000000008152508181816000908051906020019062000098929190620000bc565b508060019080519060200190620000b1929190620000bc565b5050505050620001d1565b828054620000ca906200019b565b90600052602060002090601f016020900481019282620000ee57600085556200013a565b82601f106200010957805160ff19168380011785556200013a565b828001600101855582156200013a579182015b82811115620001395782518255916020019190600101906200011c565b5b5090506200014991906200014d565b5090565b5b80821115620001685760008160009055506001016200014e565b5090565b7f4e487b7100000000000000000000000000000000000000000000000000000000600052602260045260246000fd5b60006002820490506001821680620001b457607f821691505b60208210811415620001cb57620001ca6200016c565b5b50919050565b611e5080620001e16000396000f3fe608060405234801561001057600080fd5b50600436106100b45760003560e01c80634f6ccce7116100715780634f6ccce71461018d5780636352211e146101bd57806370a08231146101ed57806393ab6e561461021d57806395d89b411461024d578063d85d3d271461026b576100b4565b806306fdde03146100b9578063081812fc146100d7578063095ea7b31461010757806318160ddd1461012357806323b872dd146101415780632f745c591461015d575b600080fd5b6100c1610287565b6040516100ce919061126f565b60405180910390f35b6100f160048036038101906100ec91906112db565b610319565b6040516100fe9190611349565b60405180910390f35b610121600480360381019061011c9190611390565b61039e565b005b61012b6103ac565b60405161013891906113df565b60405180910390f35b61015b600480360381019061015691906113fa565b6103b9565b005b61017760048036038101906101729190611390565b6103e6565b60405161018491906113df565b60405180910390f35b6101a760048036038101906101a291906112db565b610496565b6040516101b491906113df565b60405180910390f35b6101d760048036038101906101d291906112db565b610507565b6040516101e49190611349565b60405180910390f35b6102076004803603810190610202919061144d565b6105b9565b60405161021491906113df565b60405180910390f35b610237600480360381019061023291906112db565b610671565b604051610244919061126f565b60405180910390f35b61025561071d565b604051610262919061126f565b60405180910390f35b610285600480360381019061028091906115af565b6107af565b005b60606000805461029690611627565b80601f01602080910402602001604051908101604052809291908181526020018280546102c290611627565b801561030f5780601f106102e45761010080835404028352916020019161030f565b820191906000526020600020905b8154815290600101906020018083116102f257829003601f168201915b5050505050905090565b6000610324826108b2565b610363576040517f08c379a000000000000000000000000000000000000000000000000000000000815260040161035a906116a5565b60405180910390fd5b6004600083815260200190815260200160002060009054906101000a900473ffffffffffffffffffffffffffffffffffffffff169050919050565b6103a88282610924565b5050565b6000600580549050905090565b6103c3828261039e565b6103cd3382610ac0565b6103d657600080fd5b6103e1838383610b8d565b505050565b60006103f1836105b9565b8210610432576040517f08c379a000000000000000000000000000000000000000000000000000000000815260040161042990611711565b60405180910390fd5b600760008473ffffffffffffffffffffffffffffffffffffffff1673ffffffffffffffffffffffffffffffffffffffff168152602001908152602001600020828154811061048357610482611731565b5b9060005260206000200154905092915050565b60006104a06103ac565b82106104e1576040517f08c379a00000000000000000000000000000000000000000000000000000000081526004016104d8906117ac565b60405180910390fd5b600582815481106104f5576104f4611731565b5b90600052602060002001549050919050565b6000806002600084815260200190815260200160002060009054906101000a900473ffffffffffffffffffffffffffffffffffffffff169050600073ffffffffffffffffffffffffffffffffffffffff168173ffffffffffffffffffffffffffffffffffffffff1614156105b0576040517f08c379a00000000000000000000000000000000000000000000000000000000081526004016105a79061183e565b60405180910390fd5b80915050919050565b60008073ffffffffffffffffffffffffffffffffffffffff168273ffffffffffffffffffffffffffffffffffffffff16141561062a576040517f08c379a0000000000000000000000000000000000000000000000000000000008152600401610621906118d0565b60405180910390fd5b600360008373ffffffffffffffffffffffffffffffffffffffff1673ffffffffffffffffffffffffffffffffffffffff168152602001908152602001600020549050919050565b6009818154811061068157600080fd5b90600052602060002001600091509050805461069c90611627565b80601f01602080910402602001604051908101604052809291908181526020018280546106c890611627565b80156107155780601f106106ea57610100808354040283529160200191610715565b820191906000526020600020905b8154815290600101906020018083116106f857829003601f168201915b505050505081565b60606001805461072c90611627565b80601f016020809104026020016040519081016040528092919081815260200182805461075890611627565b80156107a55780601f1061077a576101008083540402835291602001916107a5565b820191906000526020600020905b81548152906001019060200180831161078857829003601f168201915b5050505050905090565b600a816040516107bf919061192c565b908152602001604051809103902060009054906101000a900460ff161561081b576040517f08c379a00000000000000000000000000000000000000000000000000000000081526004016108129061198f565b60405180910390fd5b600981908060018154018082558091505060019003906000526020600020016000909190919091509080519060200190610856929190611133565b506000600160098054905061086b91906119de565b90506108773382610e43565b6001600a83604051610889919061192c565b908152602001604051809103902060006101000a81548160ff0219169083151502179055505050565b6000806002600084815260200190815260200160002060009054906101000a900473ffffffffffffffffffffffffffffffffffffffff169050600073ffffffffffffffffffffffffffffffffffffffff168173ffffffffffffffffffffffffffffffffffffffff161415915050919050565b600061092f82610507565b90508073ffffffffffffffffffffffffffffffffffffffff168373ffffffffffffffffffffffffffffffffffffffff1614156109a0576040517f08c379a000000000000000000000000000000000000000000000000000000000815260040161099790611a5e565b60405180910390fd5b8073ffffffffffffffffffffffffffffffffffffffff163373ffffffffffffffffffffffffffffffffffffffff1614610a0e576040517f08c379a0000000000000000000000000000000000000000000000000000000008152600401610a0590611af0565b60405180910390fd5b826004600084815260200190815260200160002060006101000a81548173ffffffffffffffffffffffffffffffffffffffff021916908373ffffffffffffffffffffffffffffffffffffffff160217905550818373ffffffffffffffffffffffffffffffffffffffff168273ffffffffffffffffffffffffffffffffffffffff167f8c5be1e5ebec7d5bd14f71427d1e84f3dd0314c0f7b2291e5b200ac8c7c3b92560405160405180910390a4505050565b6000610acb826108b2565b610b0a576040517f08c379a0000000000000000000000000000000000000000000000000000000008152600401610b01906116a5565b60405180910390fd5b6000610b1583610507565b90508073ffffffffffffffffffffffffffffffffffffffff168473ffffffffffffffffffffffffffffffffffffffff161480610b8457508373ffffffffffffffffffffffffffffffffffffffff16610b6c84610319565b73ffffffffffffffffffffffffffffffffffffffff16145b91505092915050565b600073ffffffffffffffffffffffffffffffffffffffff168273ffffffffffffffffffffffffffffffffffffffff161415610bfd576040517f08c379a0000000000000000000000000000000000000000000000000000000008152600401610bf490611b82565b60405180910390fd5b600073ffffffffffffffffffffffffffffffffffffffff168373ffffffffffffffffffffffffffffffffffffffff161415610c6d576040517f08c379a0000000000000000000000000000000000000000000000000000000008152600401610c6490611c14565b60405180910390fd5b8273ffffffffffffffffffffffffffffffffffffffff16610c8d82610507565b73ffffffffffffffffffffffffffffffffffffffff1614610ce3576040517f08c379a0000000000000000000000000000000000000000000000000000000008152600401610cda90611ca6565b60405180910390fd5b816002600083815260200190815260200160002060006101000a81548173ffffffffffffffffffffffffffffffffffffffff021916908373ffffffffffffffffffffffffffffffffffffffff1602179055506001600360008573ffffffffffffffffffffffffffffffffffffffff1673ffffffffffffffffffffffffffffffffffffffff1681526020019081526020016000206000828254610d8591906119de565b925050819055506001600360008473ffffffffffffffffffffffffffffffffffffffff1673ffffffffffffffffffffffffffffffffffffffff1681526020019081526020016000206000828254610ddc9190611cc6565b92505081905550808273ffffffffffffffffffffffffffffffffffffffff168473ffffffffffffffffffffffffffffffffffffffff167fddf252ad1be2c89b69c2b068fc378daa952ba7f163c4a11628f55a4df523b3ef60405160405180910390a4505050565b610e4d8282610e64565b610e5681611026565b610e60828261106f565b5050565b600073ffffffffffffffffffffffffffffffffffffffff168273ffffffffffffffffffffffffffffffffffffffff161415610ed4576040517f08c379a0000000000000000000000000000000000000000000000000000000008152600401610ecb90611d8e565b60405180910390fd5b610edd816108b2565b15610f1d576040517f08c379a0000000000000000000000000000000000000000000000000000000008152600401610f1490611dfa565b60405180910390fd5b816002600083815260200190815260200160002060006101000a81548173ffffffffffffffffffffffffffffffffffffffff021916908373ffffffffffffffffffffffffffffffffffffffff1602179055506001600360008473ffffffffffffffffffffffffffffffffffffffff1673ffffffffffffffffffffffffffffffffffffffff1681526020019081526020016000206000828254610fbf9190611cc6565b92505081905550808273ffffffffffffffffffffffffffffffffffffffff16600073ffffffffffffffffffffffffffffffffffffffff167fddf252ad1be2c89b69c2b068fc378daa952ba7f163c4a11628f55a4df523b3ef60405160405180910390a45050565b6005805490506006600083815260200190815260200160002081905550600581908060018154018082558091505060019003906000526020600020016000909190919091505550565b600760008373ffffffffffffffffffffffffffffffffffffffff1673ffffffffffffffffffffffffffffffffffffffff168152602001908152602001600020819080600181540180825580915050600190039060005260206000200160009091909190915055600760008373ffffffffffffffffffffffffffffffffffffffff1673ffffffffffffffffffffffffffffffffffffffff1681526020019081526020016000208054905060086000838152602001908152602001600020819055505050565b82805461113f90611627565b90600052602060002090601f01602090048101928261116157600085556111a8565b82601f1061117a57805160ff19168380011785556111a8565b828001600101855582156111a8579182015b828111156111a757825182559160200191906001019061118c565b5b5090506111b591906111b9565b5090565b5b808211156111d25760008160009055506001016111ba565b5090565b600081519050919050565b600082825260208201905092915050565b60005b838110156112105780820151818401526020810190506111f5565b8381111561121f576000848401525b50505050565b6000601f19601f8301169050919050565b6000611241826111d6565b61124b81856111e1565b935061125b8185602086016111f2565b61126481611225565b840191505092915050565b600060208201905081810360008301526112898184611236565b905092915050565b6000604051905090565b600080fd5b600080fd5b6000819050919050565b6112b8816112a5565b81146112c357600080fd5b50565b6000813590506112d5816112af565b92915050565b6000602082840312156112f1576112f061129b565b5b60006112ff848285016112c6565b91505092915050565b600073ffffffffffffffffffffffffffffffffffffffff82169050919050565b600061133382611308565b9050919050565b61134381611328565b82525050565b600060208201905061135e600083018461133a565b92915050565b61136d81611328565b811461137857600080fd5b50565b60008135905061138a81611364565b92915050565b600080604083850312156113a7576113a661129b565b5b60006113b58582860161137b565b92505060206113c6858286016112c6565b9150509250929050565b6113d9816112a5565b82525050565b60006020820190506113f460008301846113d0565b92915050565b6000806000606084860312156114135761141261129b565b5b60006114218682870161137b565b93505060206114328682870161137b565b9250506040611443868287016112c6565b9150509250925092565b6000602082840312156114635761146261129b565b5b60006114718482850161137b565b91505092915050565b600080fd5b600080fd5b7f4e487b7100000000000000000000000000000000000000000000000000000000600052604160045260246000fd5b6114bc82611225565b810181811067ffffffffffffffff821117156114db576114da611484565b5b80604052505050565b60006114ee611291565b90506114fa82826114b3565b919050565b600067ffffffffffffffff82111561151a57611519611484565b5b61152382611225565b9050602081019050919050565b82818337600083830152505050565b600061155261154d846114ff565b6114e4565b90508281526020810184848401111561156e5761156d61147f565b5b611579848285611530565b509392505050565b600082601f8301126115965761159561147a565b5b81356115a684826020860161153f565b91505092915050565b6000602082840312156115c5576115c461129b565b5b600082013567ffffffffffffffff8111156115e3576115e26112a0565b5b6115ef84828501611581565b91505092915050565b7f4e487b7100000000000000000000000000000000000000000000000000000000600052602260045260246000fd5b6000600282049050600182168061163f57607f821691505b60208210811415611653576116526115f8565b5b50919050565b7f4572726f723a20746f6b656e20646f6573206e6f742065786973740000000000600082015250565b600061168f601b836111e1565b915061169a82611659565b602082019050919050565b600060208201905081810360008301526116be81611682565b9050919050565b7f6f776e657220696e646578206973206f7574206f6620626f756e647321000000600082015250565b60006116fb601d836111e1565b9150611706826116c5565b602082019050919050565b6000602082019050818103600083015261172a816116ee565b9050919050565b7f4e487b7100000000000000000000000000000000000000000000000000000000600052603260045260246000fd5b7f676c6f62616c20696e646578206973206f7574206f6620626f756e6473210000600082015250565b6000611796601e836111e1565b91506117a182611760565b602082019050919050565b600060208201905081810360008301526117c581611789565b9050919050565b7f4572726f723a20746f6b656e496420717565727920666f72206e6f6e2d65786960008201527f7374656e74206f776e6572000000000000000000000000000000000000000000602082015250565b6000611828602b836111e1565b9150611833826117cc565b604082019050919050565b600060208201905081810360008301526118578161181b565b9050919050565b7f4572726f723a206f776e657220717565727920666f72206e6f6e2d657869737460008201527f656e7420746f6b656e0000000000000000000000000000000000000000000000602082015250565b60006118ba6029836111e1565b91506118c58261185e565b604082019050919050565b600060208201905081810360008301526118e9816118ad565b9050919050565b600081905092915050565b6000611906826111d6565b61191081856118f0565b93506119208185602086016111f2565b80840191505092915050565b600061193882846118fb565b915081905092915050565b7f4572726f723a204b727970746f4269726420616c726561647920657869737473600082015250565b60006119796020836111e1565b915061198482611943565b602082019050919050565b600060208201905081810360008301526119a88161196c565b9050919050565b7f4e487b7100000000000000000000000000000000000000000000000000000000600052601160045260246000fd5b60006119e9826112a5565b91506119f4836112a5565b925082821015611a0757611a066119af565b5b828203905092915050565b7f4572726f723a20617070726f76616c20746f2063757272656e74206f776e6572600082015250565b6000611a486020836111e1565b9150611a5382611a12565b602082019050919050565b60006020820190508181036000830152611a7781611a3b565b9050919050565b7f4572726f723a2063757272656e742063616c6c6572206973206e6f742074686560008201527f206f776e6572206f662074686520746f6b656e00000000000000000000000000602082015250565b6000611ada6033836111e1565b9150611ae582611a7e565b604082019050919050565b60006020820190508181036000830152611b0981611acd565b9050919050565b7f4572726f723a207472616e7366657220746f20746865207a65726f206164647260008201527f6573730000000000000000000000000000000000000000000000000000000000602082015250565b6000611b6c6023836111e1565b9150611b7782611b10565b604082019050919050565b60006020820190508181036000830152611b9b81611b5f565b9050919050565b7f4572726f723a207472616e736665722066726f6d20746865207a65726f20616460008201527f6472657373000000000000000000000000000000000000000000000000000000602082015250565b6000611bfe6025836111e1565b9150611c0982611ba2565b604082019050919050565b60006020820190508181036000830152611c2d81611bf1565b9050919050565b7f4572726f723a20747279696e6720746f207472616e73666572206120746f6b6560008201527f6e2061646472657373206f776e657220646f6573206e6f74206f776e00000000602082015250565b6000611c90603c836111e1565b9150611c9b82611c34565b604082019050919050565b60006020820190508181036000830152611cbf81611c83565b9050919050565b6000611cd1826112a5565b9150611cdc836112a5565b9250827fffffffffffffffffffffffffffffffffffffffffffffffffffffffffffffffff03821115611d1157611d106119af565b5b828201905092915050565b7f4552433732313a206d696e74696e6720746f20746865207a65726f206164647260008201527f6573730000000000000000000000000000000000000000000000000000000000602082015250565b6000611d786023836111e1565b9150611d8382611d1c565b604082019050919050565b60006020820190508181036000830152611da781611d6b565b9050919050565b7f4552433732313a20746f6b656e20616c7265616479206d696e74656400000000600082015250565b6000611de4601c836111e1565b9150611def82611dae565b602082019050919050565b60006020820190508181036000830152611e1381611dd7565b905091905056fea2646970667358221220d5c8674a07dd041b44bf060097db3cff2504344bc719599f909842208fc01ac664736f6c634300080b0033",
  "immutableReferences": {},
  "source": "// SPDX-License-Identifier: MIT\npragma solidity ^0.8.0;\n\nimport './ERC721Connector.sol';\n\ncontract KryptoBird is ERC721Connector {\n    \n    // array to store our nfts\n    string[] public kryptoBirdz;\n\n    mapping(string => bool) _kryptoBirdzExists;\n\n    function mint(string memory _kryptoBird) public {\n        require(!_kryptoBirdzExists[_kryptoBird],'Error: KryptoBird already exists');\n\n        // this is deprecated - uint _id = kryptoBirdz.push(_kryptoBird);\n        // .push no longer returns the length but a ref to the added element\n\n        kryptoBirdz.push(_kryptoBird);\n        uint _id = kryptoBirdz.length -1;\n\n        _mint(msg.sender, _id);\n\n        _kryptoBirdzExists[_kryptoBird] = true;\n    }\n\n    constructor() ERC721Connector('KryptoBird', 'KBIRDZ') {}\n}\n\n",
  "sourcePath": "/Users/nicholasnikas/Desktop/nft-marketplace-starter-kit/src/contracts/KryptoBirdz.sol",
  "compiler": {
    "name": "solc",
    "version": "0.8.11+commit.d7f03943.Emscripten.clang"
  },
  "schemaVersion": "3.4.4",
  "updatedAt": "2022-01-08T02:30:34.284Z",
  "networkType": "ethereum",
  "devdoc": {
    "kind": "dev",
    "methods": {
      "balanceOf(address)": {
        "details": "NFTs assigned to the zero address are considered invalid, and this  function throws for queries about the zero address.",
        "params": {
          "_owner": "An address for whom to query the balance"
        },
        "returns": {
          "_0": "The number of NFTs owned by `_owner`, possibly zero"
        }
      },
      "ownerOf(uint256)": {
        "details": "NFTs assigned to zero address are considered invalid, and queries  about them do throw.",
        "params": {
          "_tokenId": "The identifier for an NFT"
        },
        "returns": {
          "_0": "The address of the owner of the NFT"
        }
      },
      "tokenByIndex(uint256)": {
        "details": "Throws if `_index` >= `totalSupply()`.",
        "params": {
          "_index": "A counter less than `totalSupply()`"
        },
        "returns": {
          "_0": "The token identifier for the `_index`th NFT,  (sort order not specified)"
        }
      },
      "tokenOfOwnerByIndex(address,uint256)": {
        "details": "Throws if `_index` >= `balanceOf(_owner)` or if  `_owner` is the zero address, representing invalid NFTs.",
        "params": {
          "_index": "A counter less than `balanceOf(_owner)`",
          "_owner": "An address where we are interested in NFTs owned by them"
        },
        "returns": {
          "_0": "The token identifier for the `_index`th NFT assigned to `_owner`,   (sort order not specified)"
        }
      },
      "totalSupply()": {
        "returns": {
          "_0": "A count of valid NFTs tracked by this contract, where each one of  them has an assigned and queryable owner not equal to the zero address"
        }
      }
    },
    "version": 1
  },
  "userdoc": {
    "kind": "user",
    "methods": {
      "balanceOf(address)": {
        "notice": "Count all NFTs assigned to an owner"
      },
      "ownerOf(uint256)": {
        "notice": "Find the owner of an NFT"
      },
      "tokenByIndex(uint256)": {
        "notice": "Enumerate valid NFTs"
      },
      "tokenOfOwnerByIndex(address,uint256)": {
        "notice": "Enumerate NFTs assigned to an owner"
      },
      "totalSupply()": {
        "notice": "Count NFTs tracked by this contract"
      }
    },
    "version": 1
  }
}