{
  "contractName": "KryptoBird",
  "abi": [
    {
      "inputs": [],
      "stateMutability": "nonpayable",
      "type": "constructor"
    },
    {
      "anonymous": false,
      "inputs": [
        {
          "indexed": true,
          "internalType": "address",
          "name": "_owner",
          "type": "address"
        },
        {
          "indexed": true,
          "internalType": "address",
          "name": "_approved",
          "type": "address"
        },
        {
          "indexed": true,
          "internalType": "uint256",
          "name": "_tokenId",
          "type": "uint256"
        }
      ],
      "name": "Approval",
      "type": "event"
    },
    {
      "anonymous": false,
      "inputs": [
        {
          "indexed": true,
          "internalType": "address",
          "name": "_from",
          "type": "address"
        },
        {
          "indexed": true,
          "internalType": "address",
          "name": "_to",
          "type": "address"
        },
        {
          "indexed": true,
          "internalType": "uint256",
          "name": "_tokenId",
          "type": "uint256"
        }
      ],
      "name": "Transfer",
      "type": "event"
    },
    {
      "inputs": [
        {
          "internalType": "address",
          "name": "_to",
          "type": "address"
        },
        {
          "internalType": "uint256",
          "name": "tokenId",
          "type": "uint256"
        }
      ],
      "name": "approve",
      "outputs": [],
      "stateMutability": "nonpayable",
      "type": "function"
    },
    {
      "inputs": [
        {
          "internalType": "address",
          "name": "_owner",
          "type": "address"
        }
      ],
      "name": "balanceOf",
      "outputs": [
        {
          "internalType": "uint256",
          "name": "",
          "type": "uint256"
        }
      ],
      "stateMutability": "view",
      "type": "function",
      "constant": true
    },
    {
      "inputs": [
        {
          "internalType": "uint256",
          "name": "tokenId",
          "type": "uint256"
        }
      ],
      "name": "getApproved",
      "outputs": [
        {
          "internalType": "address",
          "name": "",
          "type": "address"
        }
      ],
      "stateMutability": "view",
      "type": "function",
      "constant": true
    },
    {
      "inputs": [
        {
          "internalType": "uint256",
          "name": "",
          "type": "uint256"
        }
      ],
      "name": "kryptoBirdz",
      "outputs": [
        {
          "internalType": "string",
          "name": "",
          "type": "string"
        }
      ],
      "stateMutability": "view",
      "type": "function",
      "constant": true
    },
    {
      "inputs": [],
      "name": "name",
      "outputs": [
        {
          "internalType": "string",
          "name": "",
          "type": "string"
        }
      ],
      "stateMutability": "view",
      "type": "function",
      "constant": true
    },
    {
      "inputs": [
        {
          "internalType": "uint256",
          "name": "_tokenId",
          "type": "uint256"
        }
      ],
      "name": "ownerOf",
      "outputs": [
        {
          "internalType": "address",
          "name": "",
          "type": "address"
        }
      ],
      "stateMutability": "view",
      "type": "function",
      "constant": true
    },
    {
      "inputs": [
        {
          "internalType": "bytes4",
          "name": "interfaceId",
          "type": "bytes4"
        }
      ],
      "name": "supportsInterface",
      "outputs": [
        {
          "internalType": "bool",
          "name": "",
          "type": "bool"
        }
      ],
      "stateMutability": "view",
      "type": "function",
      "constant": true
    },
    {
      "inputs": [],
      "name": "symbol",
      "outputs": [
        {
          "internalType": "string",
          "name": "",
          "type": "string"
        }
      ],
      "stateMutability": "view",
      "type": "function",
      "constant": true
    },
    {
      "inputs": [
        {
          "internalType": "uint256",
          "name": "_index",
          "type": "uint256"
        }
      ],
      "name": "tokenByIndex",
      "outputs": [
        {
          "internalType": "uint256",
          "name": "",
          "type": "uint256"
        }
      ],
      "stateMutability": "view",
      "type": "function",
      "constant": true
    },
    {
      "inputs": [
        {
          "internalType": "address",
          "name": "_owner",
          "type": "address"
        },
        {
          "internalType": "uint256",
          "name": "_index",
          "type": "uint256"
        }
      ],
      "name": "tokenOfOwnerByIndex",
      "outputs": [
        {
          "internalType": "uint256",
          "name": "",
          "type": "uint256"
        }
      ],
      "stateMutability": "view",
      "type": "function",
      "constant": true
    },
    {
      "inputs": [],
      "name": "totalSupply",
      "outputs": [
        {
          "internalType": "uint256",
          "name": "",
          "type": "uint256"
        }
      ],
      "stateMutability": "view",
      "type": "function",
      "constant": true
    },
    {
      "inputs": [
        {
          "internalType": "address",
          "name": "_from",
          "type": "address"
        },
        {
          "internalType": "address",
          "name": "_to",
          "type": "address"
        },
        {
          "internalType": "uint256",
          "name": "_tokenId",
          "type": "uint256"
        }
      ],
      "name": "transferFrom",
      "outputs": [],
      "stateMutability": "nonpayable",
      "type": "function"
    },
    {
      "inputs": [
        {
          "internalType": "string",
          "name": "_kryptoBird",
          "type": "string"
        }
      ],
      "name": "mint",
      "outputs": [],
      "stateMutability": "nonpayable",
      "type": "function"
    }
  ],
  "bytecode": "0x60806040523480156200001157600080fd5b506040518060400160405280600a81526020017f4b727970746f42697264000000000000000000000000000000000000000000008152506040518060400160405280600681526020017f4b424952445a00000000000000000000000000000000000000000000000000008152508181620000b17f01ffc9a7a5cef8baa21ed3c5c0d7e23accb804b619e9333b597f47a0d84076e26200022a60201b60201c565b8160019080519060200190620000c992919062000302565b508060029080519060200190620000e292919062000302565b50620001367f13b182f4c0e5b2efbac0efe6cf6d756c8b89f4b79c5707a043ed9ea740574ee97f7feaf19471f34a12a7eaf32d5f3090aa2260ea8624dc8a138e74e0bf0f623076186200022a60201b60201c565b5050620001ad7f22c82707ba960a14c7592ffb6b8cfaa073fed0048a84cc7fa41f6b5bd8e7f2e47f3a6eb71757dfc6e784c1459d26270140c2c147d95ca985c80026fc5301c3eca17f8a7e378434598edc36d108689a030cbc9d7d465de4f74c71bae1028eed6a881b18186200022a60201b60201c565b620002227f8230223f691b981717299fae9549350a0d894555723531f02108b1f522c1a7977f6da5e1284143cdd2d15038a59bde3be031250f00291d64494c12d967b3a4e0c37fc53637662700e6c65104059db8bba34439e0c32483ab7c34e3ccae52c739549518186200022a60201b60201c565b50506200049a565b63ffffffff60e01b817bffffffffffffffffffffffffffffffffffffffffffffffffffffffff1916141562000296576040517f08c379a00000000000000000000000000000000000000000000000000000000081526004016200028d9062000413565b60405180910390fd5b6001600080837bffffffffffffffffffffffffffffffffffffffffffffffffffffffff19167bffffffffffffffffffffffffffffffffffffffffffffffffffffffff1916815260200190815260200160002060006101000a81548160ff02191690831515021790555050565b828054620003109062000464565b90600052602060002090601f01602090048101928262000334576000855562000380565b82601f106200034f57805160ff191683800117855562000380565b8280016001018555821562000380579182015b828111156200037f57825182559160200191906001019062000362565b5b5090506200038f919062000393565b5090565b5b80821115620003ae57600081600090555060010162000394565b5090565b600082825260208201905092915050565b7f496e76616c696420696e74657266616365207265717565737400000000000000600082015250565b6000620003fb601983620003b2565b91506200040882620003c3565b602082019050919050565b600060208201905081810360008301526200042e81620003ec565b9050919050565b7f4e487b7100000000000000000000000000000000000000000000000000000000600052602260045260246000fd5b600060028204905060018216806200047d57607f821691505b6020821081141562000494576200049362000435565b5b50919050565b6120af80620004aa6000396000f3fe608060405234801561001057600080fd5b50600436106100cf5760003560e01c80632f745c591161008c57806370a082311161006657806370a082311461023857806393ab6e561461026857806395d89b4114610298578063d85d3d27146102b6576100cf565b80632f745c59146101a85780634f6ccce7146101d85780636352211e14610208576100cf565b806301ffc9a7146100d457806306fdde0314610104578063081812fc14610122578063095ea7b31461015257806318160ddd1461016e57806323b872dd1461018c575b600080fd5b6100ee60048036038101906100e9919061137a565b6102d2565b6040516100fb91906113c2565b60405180910390f35b61010c610339565b6040516101199190611476565b60405180910390f35b61013c600480360381019061013791906114ce565b6103cb565b604051610149919061153c565b60405180910390f35b61016c60048036038101906101679190611583565b610450565b005b61017661045e565b60405161018391906115d2565b60405180910390f35b6101a660048036038101906101a191906115ed565b61046b565b005b6101c260048036038101906101bd9190611583565b610498565b6040516101cf91906115d2565b60405180910390f35b6101f260048036038101906101ed91906114ce565b610548565b6040516101ff91906115d2565b60405180910390f35b610222600480360381019061021d91906114ce565b6105b9565b60405161022f919061153c565b60405180910390f35b610252600480360381019061024d9190611640565b61066b565b60405161025f91906115d2565b60405180910390f35b610282600480360381019061027d91906114ce565b61072a565b60405161028f9190611476565b60405180910390f35b6102a06107d6565b6040516102ad9190611476565b60405180910390f35b6102d060048036038101906102cb91906117a2565b610868565b005b6000806000837bffffffffffffffffffffffffffffffffffffffffffffffffffffffff19167bffffffffffffffffffffffffffffffffffffffffffffffffffffffff1916815260200190815260200160002060009054906101000a900460ff169050919050565b6060600180546103489061181a565b80601f01602080910402602001604051908101604052809291908181526020018280546103749061181a565b80156103c15780601f10610396576101008083540402835291602001916103c1565b820191906000526020600020905b8154815290600101906020018083116103a457829003601f168201915b5050505050905090565b60006103d68261096b565b610415576040517f08c379a000000000000000000000000000000000000000000000000000000000815260040161040c90611898565b60405180910390fd5b6005600083815260200190815260200160002060009054906101000a900473ffffffffffffffffffffffffffffffffffffffff169050919050565b61045a82826109dd565b5050565b6000600680549050905090565b6104758282610450565b61047f3382610b79565b61048857600080fd5b610493838383610c46565b505050565b60006104a38361066b565b82106104e4576040517f08c379a00000000000000000000000000000000000000000000000000000000081526004016104db90611904565b60405180910390fd5b600860008473ffffffffffffffffffffffffffffffffffffffff1673ffffffffffffffffffffffffffffffffffffffff168152602001908152602001600020828154811061053557610534611924565b5b9060005260206000200154905092915050565b600061055261045e565b8210610593576040517f08c379a000000000000000000000000000000000000000000000000000000000815260040161058a9061199f565b60405180910390fd5b600682815481106105a7576105a6611924565b5b90600052602060002001549050919050565b6000806003600084815260200190815260200160002060009054906101000a900473ffffffffffffffffffffffffffffffffffffffff169050600073ffffffffffffffffffffffffffffffffffffffff168173ffffffffffffffffffffffffffffffffffffffff161415610662576040517f08c379a000000000000000000000000000000000000000000000000000000000815260040161065990611a31565b60405180910390fd5b80915050919050565b60008073ffffffffffffffffffffffffffffffffffffffff168273ffffffffffffffffffffffffffffffffffffffff1614156106dc576040517f08c379a00000000000000000000000000000000000000000000000000000000081526004016106d390611ac3565b60405180910390fd5b610723600460008473ffffffffffffffffffffffffffffffffffffffff1673ffffffffffffffffffffffffffffffffffffffff168152602001908152602001600020610edc565b9050919050565b600a818154811061073a57600080fd5b9060005260206000200160009150905080546107559061181a565b80601f01602080910402602001604051908101604052809291908181526020018280546107819061181a565b80156107ce5780601f106107a3576101008083540402835291602001916107ce565b820191906000526020600020905b8154815290600101906020018083116107b157829003601f168201915b505050505081565b6060600280546107e59061181a565b80601f01602080910402602001604051908101604052809291908181526020018280546108119061181a565b801561085e5780601f106108335761010080835404028352916020019161085e565b820191906000526020600020905b81548152906001019060200180831161084157829003601f168201915b5050505050905090565b600b816040516108789190611b1f565b908152602001604051809103902060009054906101000a900460ff16156108d4576040517f08c379a00000000000000000000000000000000000000000000000000000000081526004016108cb90611b82565b60405180910390fd5b600a8190806001815401808255809150506001900390600052602060002001600090919091909150908051906020019061090f92919061126b565b5060006001600a805490506109249190611bd1565b90506109303382610eea565b6001600b836040516109429190611b1f565b908152602001604051809103902060006101000a81548160ff0219169083151502179055505050565b6000806003600084815260200190815260200160002060009054906101000a900473ffffffffffffffffffffffffffffffffffffffff169050600073ffffffffffffffffffffffffffffffffffffffff168173ffffffffffffffffffffffffffffffffffffffff161415915050919050565b60006109e8826105b9565b90508073ffffffffffffffffffffffffffffffffffffffff168373ffffffffffffffffffffffffffffffffffffffff161415610a59576040517f08c379a0000000000000000000000000000000000000000000000000000000008152600401610a5090611c51565b60405180910390fd5b8073ffffffffffffffffffffffffffffffffffffffff163373ffffffffffffffffffffffffffffffffffffffff1614610ac7576040517f08c379a0000000000000000000000000000000000000000000000000000000008152600401610abe90611ce3565b60405180910390fd5b826005600084815260200190815260200160002060006101000a81548173ffffffffffffffffffffffffffffffffffffffff021916908373ffffffffffffffffffffffffffffffffffffffff160217905550818373ffffffffffffffffffffffffffffffffffffffff168273ffffffffffffffffffffffffffffffffffffffff167f8c5be1e5ebec7d5bd14f71427d1e84f3dd0314c0f7b2291e5b200ac8c7c3b92560405160405180910390a4505050565b6000610b848261096b565b610bc3576040517f08c379a0000000000000000000000000000000000000000000000000000000008152600401610bba90611898565b60405180910390fd5b6000610bce836105b9565b90508073ffffffffffffffffffffffffffffffffffffffff168473ffffffffffffffffffffffffffffffffffffffff161480610c3d57508373ffffffffffffffffffffffffffffffffffffffff16610c25846103cb565b73ffffffffffffffffffffffffffffffffffffffff16145b91505092915050565b600073ffffffffffffffffffffffffffffffffffffffff168273ffffffffffffffffffffffffffffffffffffffff161415610cb6576040517f08c379a0000000000000000000000000000000000000000000000000000000008152600401610cad90611d75565b60405180910390fd5b600073ffffffffffffffffffffffffffffffffffffffff168373ffffffffffffffffffffffffffffffffffffffff161415610d26576040517f08c379a0000000000000000000000000000000000000000000000000000000008152600401610d1d90611e07565b60405180910390fd5b8273ffffffffffffffffffffffffffffffffffffffff16610d46826105b9565b73ffffffffffffffffffffffffffffffffffffffff1614610d9c576040517f08c379a0000000000000000000000000000000000000000000000000000000008152600401610d9390611e99565b60405180910390fd5b816003600083815260200190815260200160002060006101000a81548173ffffffffffffffffffffffffffffffffffffffff021916908373ffffffffffffffffffffffffffffffffffffffff160217905550610e35600460008573ffffffffffffffffffffffffffffffffffffffff1673ffffffffffffffffffffffffffffffffffffffff168152602001908152602001600020610f0b565b610e7c600460008473ffffffffffffffffffffffffffffffffffffffff1673ffffffffffffffffffffffffffffffffffffffff168152602001908152602001600020610f2e565b808273ffffffffffffffffffffffffffffffffffffffff168473ffffffffffffffffffffffffffffffffffffffff167fddf252ad1be2c89b69c2b068fc378daa952ba7f163c4a11628f55a4df523b3ef60405160405180910390a4505050565b600081600001549050919050565b610ef48282610f4d565b610efd816110ff565b610f078282611148565b5050565b610f236001826000015461120c90919063ffffffff16565b816000018190555050565b6001816000016000828254610f439190611eb9565b9250508190555050565b600073ffffffffffffffffffffffffffffffffffffffff168273ffffffffffffffffffffffffffffffffffffffff161415610fbd576040517f08c379a0000000000000000000000000000000000000000000000000000000008152600401610fb490611f81565b60405180910390fd5b610fc68161096b565b15611006576040517f08c379a0000000000000000000000000000000000000000000000000000000008152600401610ffd90611fed565b60405180910390fd5b816003600083815260200190815260200160002060006101000a81548173ffffffffffffffffffffffffffffffffffffffff021916908373ffffffffffffffffffffffffffffffffffffffff16021790555061109f600460008473ffffffffffffffffffffffffffffffffffffffff1673ffffffffffffffffffffffffffffffffffffffff168152602001908152602001600020610f2e565b808273ffffffffffffffffffffffffffffffffffffffff16600073ffffffffffffffffffffffffffffffffffffffff167fddf252ad1be2c89b69c2b068fc378daa952ba7f163c4a11628f55a4df523b3ef60405160405180910390a45050565b6006805490506007600083815260200190815260200160002081905550600681908060018154018082558091505060019003906000526020600020016000909190919091505550565b600860008373ffffffffffffffffffffffffffffffffffffffff1673ffffffffffffffffffffffffffffffffffffffff168152602001908152602001600020819080600181540180825580915050600190039060005260206000200160009091909190915055600860008373ffffffffffffffffffffffffffffffffffffffff1673ffffffffffffffffffffffffffffffffffffffff1681526020019081526020016000208054905060096000838152602001908152602001600020819055505050565b600082821115611251576040517f08c379a000000000000000000000000000000000000000000000000000000000815260040161124890612059565b60405180910390fd5b6000828461125f9190611bd1565b90508091505092915050565b8280546112779061181a565b90600052602060002090601f01602090048101928261129957600085556112e0565b82601f106112b257805160ff19168380011785556112e0565b828001600101855582156112e0579182015b828111156112df5782518255916020019190600101906112c4565b5b5090506112ed91906112f1565b5090565b5b8082111561130a5760008160009055506001016112f2565b5090565b6000604051905090565b600080fd5b600080fd5b60007fffffffff0000000000000000000000000000000000000000000000000000000082169050919050565b61135781611322565b811461136257600080fd5b50565b6000813590506113748161134e565b92915050565b6000602082840312156113905761138f611318565b5b600061139e84828501611365565b91505092915050565b60008115159050919050565b6113bc816113a7565b82525050565b60006020820190506113d760008301846113b3565b92915050565b600081519050919050565b600082825260208201905092915050565b60005b838110156114175780820151818401526020810190506113fc565b83811115611426576000848401525b50505050565b6000601f19601f8301169050919050565b6000611448826113dd565b61145281856113e8565b93506114628185602086016113f9565b61146b8161142c565b840191505092915050565b60006020820190508181036000830152611490818461143d565b905092915050565b6000819050919050565b6114ab81611498565b81146114b657600080fd5b50565b6000813590506114c8816114a2565b92915050565b6000602082840312156114e4576114e3611318565b5b60006114f2848285016114b9565b91505092915050565b600073ffffffffffffffffffffffffffffffffffffffff82169050919050565b6000611526826114fb565b9050919050565b6115368161151b565b82525050565b6000602082019050611551600083018461152d565b92915050565b6115608161151b565b811461156b57600080fd5b50565b60008135905061157d81611557565b92915050565b6000806040838503121561159a57611599611318565b5b60006115a88582860161156e565b92505060206115b9858286016114b9565b9150509250929050565b6115cc81611498565b82525050565b60006020820190506115e760008301846115c3565b92915050565b60008060006060848603121561160657611605611318565b5b60006116148682870161156e565b93505060206116258682870161156e565b9250506040611636868287016114b9565b9150509250925092565b60006020828403121561165657611655611318565b5b60006116648482850161156e565b91505092915050565b600080fd5b600080fd5b7f4e487b7100000000000000000000000000000000000000000000000000000000600052604160045260246000fd5b6116af8261142c565b810181811067ffffffffffffffff821117156116ce576116cd611677565b5b80604052505050565b60006116e161130e565b90506116ed82826116a6565b919050565b600067ffffffffffffffff82111561170d5761170c611677565b5b6117168261142c565b9050602081019050919050565b82818337600083830152505050565b6000611745611740846116f2565b6116d7565b90508281526020810184848401111561176157611760611672565b5b61176c848285611723565b509392505050565b600082601f8301126117895761178861166d565b5b8135611799848260208601611732565b91505092915050565b6000602082840312156117b8576117b7611318565b5b600082013567ffffffffffffffff8111156117d6576117d561131d565b5b6117e284828501611774565b91505092915050565b7f4e487b7100000000000000000000000000000000000000000000000000000000600052602260045260246000fd5b6000600282049050600182168061183257607f821691505b60208210811415611846576118456117eb565b5b50919050565b7f4572726f723a20746f6b656e20646f6573206e6f742065786973740000000000600082015250565b6000611882601b836113e8565b915061188d8261184c565b602082019050919050565b600060208201905081810360008301526118b181611875565b9050919050565b7f6f776e657220696e646578206973206f7574206f6620626f756e647321000000600082015250565b60006118ee601d836113e8565b91506118f9826118b8565b602082019050919050565b6000602082019050818103600083015261191d816118e1565b9050919050565b7f4e487b7100000000000000000000000000000000000000000000000000000000600052603260045260246000fd5b7f676c6f62616c20696e646578206973206f7574206f6620626f756e6473210000600082015250565b6000611989601e836113e8565b915061199482611953565b602082019050919050565b600060208201905081810360008301526119b88161197c565b9050919050565b7f4572726f723a20746f6b656e496420717565727920666f72206e6f6e2d65786960008201527f7374656e74206f776e6572000000000000000000000000000000000000000000602082015250565b6000611a1b602b836113e8565b9150611a26826119bf565b604082019050919050565b60006020820190508181036000830152611a4a81611a0e565b9050919050565b7f4572726f723a206f776e657220717565727920666f72206e6f6e2d657869737460008201527f656e7420746f6b656e0000000000000000000000000000000000000000000000602082015250565b6000611aad6029836113e8565b9150611ab882611a51565b604082019050919050565b60006020820190508181036000830152611adc81611aa0565b9050919050565b600081905092915050565b6000611af9826113dd565b611b038185611ae3565b9350611b138185602086016113f9565b80840191505092915050565b6000611b2b8284611aee565b915081905092915050565b7f4572726f723a204b727970746f4269726420616c726561647920657869737473600082015250565b6000611b6c6020836113e8565b9150611b7782611b36565b602082019050919050565b60006020820190508181036000830152611b9b81611b5f565b9050919050565b7f4e487b7100000000000000000000000000000000000000000000000000000000600052601160045260246000fd5b6000611bdc82611498565b9150611be783611498565b925082821015611bfa57611bf9611ba2565b5b828203905092915050565b7f4572726f723a20617070726f76616c20746f2063757272656e74206f776e6572600082015250565b6000611c3b6020836113e8565b9150611c4682611c05565b602082019050919050565b60006020820190508181036000830152611c6a81611c2e565b9050919050565b7f4572726f723a2063757272656e742063616c6c6572206973206e6f742074686560008201527f206f776e6572206f662074686520746f6b656e00000000000000000000000000602082015250565b6000611ccd6033836113e8565b9150611cd882611c71565b604082019050919050565b60006020820190508181036000830152611cfc81611cc0565b9050919050565b7f4572726f723a207472616e7366657220746f20746865207a65726f206164647260008201527f6573730000000000000000000000000000000000000000000000000000000000602082015250565b6000611d5f6023836113e8565b9150611d6a82611d03565b604082019050919050565b60006020820190508181036000830152611d8e81611d52565b9050919050565b7f4572726f723a207472616e736665722066726f6d20746865207a65726f20616460008201527f6472657373000000000000000000000000000000000000000000000000000000602082015250565b6000611df16025836113e8565b9150611dfc82611d95565b604082019050919050565b60006020820190508181036000830152611e2081611de4565b9050919050565b7f4572726f723a20747279696e6720746f207472616e73666572206120746f6b6560008201527f6e2061646472657373206f776e657220646f6573206e6f74206f776e00000000602082015250565b6000611e83603c836113e8565b9150611e8e82611e27565b604082019050919050565b60006020820190508181036000830152611eb281611e76565b9050919050565b6000611ec482611498565b9150611ecf83611498565b9250827fffffffffffffffffffffffffffffffffffffffffffffffffffffffffffffffff03821115611f0457611f03611ba2565b5b828201905092915050565b7f4552433732313a206d696e74696e6720746f20746865207a65726f206164647260008201527f6573730000000000000000000000000000000000000000000000000000000000602082015250565b6000611f6b6023836113e8565b9150611f7682611f0f565b604082019050919050565b60006020820190508181036000830152611f9a81611f5e565b9050919050565b7f4552433732313a20746f6b656e20616c7265616479206d696e74656400000000600082015250565b6000611fd7601c836113e8565b9150611fe282611fa1565b602082019050919050565b6000602082019050818103600083015261200681611fca565b9050919050565b7f536166654d6174683a205375627472616374696f6e204f766572666c6f772100600082015250565b6000612043601f836113e8565b915061204e8261200d565b602082019050919050565b6000602082019050818103600083015261207281612036565b905091905056fea2646970667358221220bd1ab33e94b17a6e1d472bd9ced42842cf5f43acdc9aabdfb18aba736b3bb5e764736f6c634300080b0033",
  "immutableReferences": {},
  "source": "// SPDX-License-Identifier: MIT\npragma solidity ^0.8.0;\n\nimport './ERC721Connector.sol';\n\ncontract KryptoBird is ERC721Connector {\n    \n    // array to store our nfts\n    string[] public kryptoBirdz;\n\n    mapping(string => bool) _kryptoBirdzExists;\n\n    function mint(string memory _kryptoBird) public {\n        require(!_kryptoBirdzExists[_kryptoBird],'Error: KryptoBird already exists');\n\n        // this is deprecated - uint _id = kryptoBirdz.push(_kryptoBird);\n        // .push no longer returns the length but a ref to the added element\n\n        kryptoBirdz.push(_kryptoBird);\n        uint _id = kryptoBirdz.length -1;\n\n        _mint(msg.sender, _id);\n\n        _kryptoBirdzExists[_kryptoBird] = true;\n    }\n\n    constructor() ERC721Connector('KryptoBird', 'KBIRDZ') {}\n}\n\n",
  "sourcePath": "/Users/nicholasnikas/Desktop/nft-marketplace-starter-kit/src/contracts/KryptoBirdz.sol",
  "compiler": {
    "name": "solc",
    "version": "0.8.11+commit.d7f03943.Emscripten.clang"
  },
  "schemaVersion": "3.4.4",
  "updatedAt": "2022-01-18T01:17:52.637Z",
  "networkType": "ethereum",
  "devdoc": {
    "kind": "dev",
    "methods": {
      "balanceOf(address)": {
        "details": "NFTs assigned to the zero address are considered invalid, and this  function throws for queries about the zero address.",
        "params": {
          "_owner": "An address for whom to query the balance"
        },
        "returns": {
          "_0": "The number of NFTs owned by `_owner`, possibly zero"
        }
      },
      "ownerOf(uint256)": {
        "details": "NFTs assigned to zero address are considered invalid, and queries  about them do throw.",
        "params": {
          "_tokenId": "The identifier for an NFT"
        },
        "returns": {
          "_0": "The address of the owner of the NFT"
        }
      },
      "tokenByIndex(uint256)": {
        "details": "Throws if `_index` >= `totalSupply()`.",
        "params": {
          "_index": "A counter less than `totalSupply()`"
        },
        "returns": {
          "_0": "The token identifier for the `_index`th NFT,  (sort order not specified)"
        }
      },
      "tokenOfOwnerByIndex(address,uint256)": {
        "details": "Throws if `_index` >= `balanceOf(_owner)` or if  `_owner` is the zero address, representing invalid NFTs.",
        "params": {
          "_index": "A counter less than `balanceOf(_owner)`",
          "_owner": "An address where we are interested in NFTs owned by them"
        },
        "returns": {
          "_0": "The token identifier for the `_index`th NFT assigned to `_owner`,   (sort order not specified)"
        }
      },
      "totalSupply()": {
        "returns": {
          "_0": "A count of valid NFTs tracked by this contract, where each one of  them has an assigned and queryable owner not equal to the zero address"
        }
      },
      "transferFrom(address,address,uint256)": {
        "details": "Throws unless `msg.sender` is the current owner, an authorized  operator, or the approved address for this NFT. Throws if `_from` is  not the current owner. Throws if `_to` is the zero address. Throws if  `_tokenId` is not a valid NFT.",
        "params": {
          "_from": "The current owner of the NFT",
          "_to": "The new owner",
          "_tokenId": "The NFT to transfer"
        }
      }
    },
    "version": 1
  },
  "userdoc": {
    "kind": "user",
    "methods": {
      "balanceOf(address)": {
        "notice": "Count all NFTs assigned to an owner"
      },
      "name()": {
        "notice": "A descriptive name for a collection of NFTs in this contract"
      },
      "ownerOf(uint256)": {
        "notice": "Find the owner of an NFT"
      },
      "symbol()": {
        "notice": "An abbreviated name for NFTs in this contract"
      },
      "tokenByIndex(uint256)": {
        "notice": "Enumerate valid NFTs"
      },
      "tokenOfOwnerByIndex(address,uint256)": {
        "notice": "Enumerate NFTs assigned to an owner"
      },
      "totalSupply()": {
        "notice": "Count NFTs tracked by this contract"
      },
      "transferFrom(address,address,uint256)": {
        "notice": "Transfer ownership of an NFT -- THE CALLER IS RESPONSIBLE  TO CONFIRM THAT `_to` IS CAPABLE OF RECEIVING NFTS OR ELSE  THEY MAY BE PERMANENTLY LOST"
      }
    },
    "version": 1
  }
}