{
  "contractName": "KryptoBird",
  "abi": [
    {
      "inputs": [],
      "stateMutability": "nonpayable",
      "type": "constructor"
    },
    {
      "anonymous": false,
      "inputs": [
        {
          "indexed": true,
          "internalType": "address",
          "name": "from",
          "type": "address"
        },
        {
          "indexed": true,
          "internalType": "address",
          "name": "to",
          "type": "address"
        },
        {
          "indexed": true,
          "internalType": "uint256",
          "name": "tokenId",
          "type": "uint256"
        }
      ],
      "name": "Transfer",
      "type": "event"
    },
    {
      "inputs": [
        {
          "internalType": "address",
          "name": "_owner",
          "type": "address"
        }
      ],
      "name": "balanceOf",
      "outputs": [
        {
          "internalType": "uint256",
          "name": "",
          "type": "uint256"
        }
      ],
      "stateMutability": "view",
      "type": "function",
      "constant": true
    },
    {
      "inputs": [
        {
          "internalType": "uint256",
          "name": "",
          "type": "uint256"
        }
      ],
      "name": "kryptoBirdz",
      "outputs": [
        {
          "internalType": "string",
          "name": "",
          "type": "string"
        }
      ],
      "stateMutability": "view",
      "type": "function",
      "constant": true
    },
    {
      "inputs": [],
      "name": "name",
      "outputs": [
        {
          "internalType": "string",
          "name": "",
          "type": "string"
        }
      ],
      "stateMutability": "view",
      "type": "function",
      "constant": true
    },
    {
      "inputs": [
        {
          "internalType": "uint256",
          "name": "_tokenId",
          "type": "uint256"
        }
      ],
      "name": "ownerOf",
      "outputs": [
        {
          "internalType": "address",
          "name": "",
          "type": "address"
        }
      ],
      "stateMutability": "view",
      "type": "function",
      "constant": true
    },
    {
      "inputs": [],
      "name": "symbol",
      "outputs": [
        {
          "internalType": "string",
          "name": "",
          "type": "string"
        }
      ],
      "stateMutability": "view",
      "type": "function",
      "constant": true
    },
    {
      "inputs": [
        {
          "internalType": "uint256",
          "name": "_index",
          "type": "uint256"
        }
      ],
      "name": "tokenByIndex",
      "outputs": [
        {
          "internalType": "uint256",
          "name": "",
          "type": "uint256"
        }
      ],
      "stateMutability": "view",
      "type": "function",
      "constant": true
    },
    {
      "inputs": [
        {
          "internalType": "address",
          "name": "_owner",
          "type": "address"
        },
        {
          "internalType": "uint256",
          "name": "_index",
          "type": "uint256"
        }
      ],
      "name": "tokenOfOwnerByIndex",
      "outputs": [
        {
          "internalType": "uint256",
          "name": "",
          "type": "uint256"
        }
      ],
      "stateMutability": "view",
      "type": "function",
      "constant": true
    },
    {
      "inputs": [],
      "name": "totalSupply",
      "outputs": [
        {
          "internalType": "uint256",
          "name": "",
          "type": "uint256"
        }
      ],
      "stateMutability": "view",
      "type": "function",
      "constant": true
    },
    {
      "inputs": [
        {
          "internalType": "address",
          "name": "_from",
          "type": "address"
        },
        {
          "internalType": "address",
          "name": "_to",
          "type": "address"
        },
        {
          "internalType": "uint256",
          "name": "_tokenId",
          "type": "uint256"
        }
      ],
      "name": "transferFrom",
      "outputs": [],
      "stateMutability": "nonpayable",
      "type": "function"
    },
    {
      "inputs": [
        {
          "internalType": "string",
          "name": "_kryptoBird",
          "type": "string"
        }
      ],
      "name": "mint",
      "outputs": [],
      "stateMutability": "nonpayable",
      "type": "function"
    }
  ],
  "bytecode": "0x60806040523480156200001157600080fd5b506040518060400160405280600a81526020017f4b727970746f42697264000000000000000000000000000000000000000000008152506040518060400160405280600681526020017f4b424952445a00000000000000000000000000000000000000000000000000008152508181816000908051906020019062000098929190620000bc565b508060019080519060200190620000b1929190620000bc565b5050505050620001d1565b828054620000ca906200019b565b90600052602060002090601f016020900481019282620000ee57600085556200013a565b82601f106200010957805160ff19168380011785556200013a565b828001600101855582156200013a579182015b82811115620001395782518255916020019190600101906200011c565b5b5090506200014991906200014d565b5090565b5b80821115620001685760008160009055506001016200014e565b5090565b7f4e487b7100000000000000000000000000000000000000000000000000000000600052602260045260246000fd5b60006002820490506001821680620001b457607f821691505b60208210811415620001cb57620001ca6200016c565b5b50919050565b61196b80620001e16000396000f3fe608060405234801561001057600080fd5b506004361061009e5760003560e01c80636352211e116100665780636352211e1461015b57806370a082311461018b57806393ab6e56146101bb57806395d89b41146101eb578063d85d3d27146102095761009e565b806306fdde03146100a357806318160ddd146100c157806323b872dd146100df5780632f745c59146100fb5780634f6ccce71461012b575b600080fd5b6100ab610225565b6040516100b89190610ef4565b60405180910390f35b6100c96102b7565b6040516100d69190610f2f565b60405180910390f35b6100f960048036038101906100f49190610fe8565b6102c4565b005b6101156004803603810190610110919061103b565b6102d4565b6040516101229190610f2f565b60405180910390f35b6101456004803603810190610140919061107b565b610384565b6040516101529190610f2f565b60405180910390f35b6101756004803603810190610170919061107b565b6103f5565b60405161018291906110b7565b60405180910390f35b6101a560048036038101906101a091906110d2565b6104a7565b6040516101b29190610f2f565b60405180910390f35b6101d560048036038101906101d0919061107b565b61055f565b6040516101e29190610ef4565b60405180910390f35b6101f361060b565b6040516102009190610ef4565b60405180910390f35b610223600480360381019061021e9190611234565b61069d565b005b606060008054610234906112ac565b80601f0160208091040260200160405190810160405280929190818152602001828054610260906112ac565b80156102ad5780601f10610282576101008083540402835291602001916102ad565b820191906000526020600020905b81548152906001019060200180831161029057829003601f168201915b5050505050905090565b6000600580549050905090565b6102cf8383836107a0565b505050565b60006102df836104a7565b8210610320576040517f08c379a00000000000000000000000000000000000000000000000000000000081526004016103179061132a565b60405180910390fd5b600760008473ffffffffffffffffffffffffffffffffffffffff1673ffffffffffffffffffffffffffffffffffffffff16815260200190815260200160002082815481106103715761037061134a565b5b9060005260206000200154905092915050565b600061038e6102b7565b82106103cf576040517f08c379a00000000000000000000000000000000000000000000000000000000081526004016103c6906113c5565b60405180910390fd5b600582815481106103e3576103e261134a565b5b90600052602060002001549050919050565b6000806002600084815260200190815260200160002060009054906101000a900473ffffffffffffffffffffffffffffffffffffffff169050600073ffffffffffffffffffffffffffffffffffffffff168173ffffffffffffffffffffffffffffffffffffffff16141561049e576040517f08c379a000000000000000000000000000000000000000000000000000000000815260040161049590611457565b60405180910390fd5b80915050919050565b60008073ffffffffffffffffffffffffffffffffffffffff168273ffffffffffffffffffffffffffffffffffffffff161415610518576040517f08c379a000000000000000000000000000000000000000000000000000000000815260040161050f906114e9565b60405180910390fd5b600360008373ffffffffffffffffffffffffffffffffffffffff1673ffffffffffffffffffffffffffffffffffffffff168152602001908152602001600020549050919050565b6009818154811061056f57600080fd5b90600052602060002001600091509050805461058a906112ac565b80601f01602080910402602001604051908101604052809291908181526020018280546105b6906112ac565b80156106035780601f106105d857610100808354040283529160200191610603565b820191906000526020600020905b8154815290600101906020018083116105e657829003601f168201915b505050505081565b60606001805461061a906112ac565b80601f0160208091040260200160405190810160405280929190818152602001828054610646906112ac565b80156106935780601f1061066857610100808354040283529160200191610693565b820191906000526020600020905b81548152906001019060200180831161067657829003601f168201915b5050505050905090565b600a816040516106ad9190611545565b908152602001604051809103902060009054906101000a900460ff1615610709576040517f08c379a0000000000000000000000000000000000000000000000000000000008152600401610700906115a8565b60405180910390fd5b600981908060018154018082558091505060019003906000526020600020016000909190919091509080519060200190610744929190610db8565b506000600160098054905061075991906115f7565b90506107653382610a56565b6001600a836040516107779190611545565b908152602001604051809103902060006101000a81548160ff0219169083151502179055505050565b600073ffffffffffffffffffffffffffffffffffffffff168273ffffffffffffffffffffffffffffffffffffffff161415610810576040517f08c379a00000000000000000000000000000000000000000000000000000000081526004016108079061169d565b60405180910390fd5b600073ffffffffffffffffffffffffffffffffffffffff168373ffffffffffffffffffffffffffffffffffffffff161415610880576040517f08c379a00000000000000000000000000000000000000000000000000000000081526004016108779061172f565b60405180910390fd5b8273ffffffffffffffffffffffffffffffffffffffff166108a0826103f5565b73ffffffffffffffffffffffffffffffffffffffff16146108f6576040517f08c379a00000000000000000000000000000000000000000000000000000000081526004016108ed906117c1565b60405180910390fd5b816002600083815260200190815260200160002060006101000a81548173ffffffffffffffffffffffffffffffffffffffff021916908373ffffffffffffffffffffffffffffffffffffffff1602179055506001600360008573ffffffffffffffffffffffffffffffffffffffff1673ffffffffffffffffffffffffffffffffffffffff168152602001908152602001600020600082825461099891906115f7565b925050819055506001600360008473ffffffffffffffffffffffffffffffffffffffff1673ffffffffffffffffffffffffffffffffffffffff16815260200190815260200160002060008282546109ef91906117e1565b92505081905550808273ffffffffffffffffffffffffffffffffffffffff168473ffffffffffffffffffffffffffffffffffffffff167fddf252ad1be2c89b69c2b068fc378daa952ba7f163c4a11628f55a4df523b3ef60405160405180910390a4505050565b610a608282610a77565b610a6981610c39565b610a738282610c82565b5050565b600073ffffffffffffffffffffffffffffffffffffffff168273ffffffffffffffffffffffffffffffffffffffff161415610ae7576040517f08c379a0000000000000000000000000000000000000000000000000000000008152600401610ade906118a9565b60405180910390fd5b610af081610d46565b15610b30576040517f08c379a0000000000000000000000000000000000000000000000000000000008152600401610b2790611915565b60405180910390fd5b816002600083815260200190815260200160002060006101000a81548173ffffffffffffffffffffffffffffffffffffffff021916908373ffffffffffffffffffffffffffffffffffffffff1602179055506001600360008473ffffffffffffffffffffffffffffffffffffffff1673ffffffffffffffffffffffffffffffffffffffff1681526020019081526020016000206000828254610bd291906117e1565b92505081905550808273ffffffffffffffffffffffffffffffffffffffff16600073ffffffffffffffffffffffffffffffffffffffff167fddf252ad1be2c89b69c2b068fc378daa952ba7f163c4a11628f55a4df523b3ef60405160405180910390a45050565b6005805490506006600083815260200190815260200160002081905550600581908060018154018082558091505060019003906000526020600020016000909190919091505550565b600760008373ffffffffffffffffffffffffffffffffffffffff1673ffffffffffffffffffffffffffffffffffffffff168152602001908152602001600020819080600181540180825580915050600190039060005260206000200160009091909190915055600760008373ffffffffffffffffffffffffffffffffffffffff1673ffffffffffffffffffffffffffffffffffffffff1681526020019081526020016000208054905060086000838152602001908152602001600020819055505050565b6000806002600084815260200190815260200160002060009054906101000a900473ffffffffffffffffffffffffffffffffffffffff169050600073ffffffffffffffffffffffffffffffffffffffff168173ffffffffffffffffffffffffffffffffffffffff161415915050919050565b828054610dc4906112ac565b90600052602060002090601f016020900481019282610de65760008555610e2d565b82601f10610dff57805160ff1916838001178555610e2d565b82800160010185558215610e2d579182015b82811115610e2c578251825591602001919060010190610e11565b5b509050610e3a9190610e3e565b5090565b5b80821115610e57576000816000905550600101610e3f565b5090565b600081519050919050565b600082825260208201905092915050565b60005b83811015610e95578082015181840152602081019050610e7a565b83811115610ea4576000848401525b50505050565b6000601f19601f8301169050919050565b6000610ec682610e5b565b610ed08185610e66565b9350610ee0818560208601610e77565b610ee981610eaa565b840191505092915050565b60006020820190508181036000830152610f0e8184610ebb565b905092915050565b6000819050919050565b610f2981610f16565b82525050565b6000602082019050610f446000830184610f20565b92915050565b6000604051905090565b600080fd5b600080fd5b600073ffffffffffffffffffffffffffffffffffffffff82169050919050565b6000610f8982610f5e565b9050919050565b610f9981610f7e565b8114610fa457600080fd5b50565b600081359050610fb681610f90565b92915050565b610fc581610f16565b8114610fd057600080fd5b50565b600081359050610fe281610fbc565b92915050565b60008060006060848603121561100157611000610f54565b5b600061100f86828701610fa7565b935050602061102086828701610fa7565b925050604061103186828701610fd3565b9150509250925092565b6000806040838503121561105257611051610f54565b5b600061106085828601610fa7565b925050602061107185828601610fd3565b9150509250929050565b60006020828403121561109157611090610f54565b5b600061109f84828501610fd3565b91505092915050565b6110b181610f7e565b82525050565b60006020820190506110cc60008301846110a8565b92915050565b6000602082840312156110e8576110e7610f54565b5b60006110f684828501610fa7565b91505092915050565b600080fd5b600080fd5b7f4e487b7100000000000000000000000000000000000000000000000000000000600052604160045260246000fd5b61114182610eaa565b810181811067ffffffffffffffff821117156111605761115f611109565b5b80604052505050565b6000611173610f4a565b905061117f8282611138565b919050565b600067ffffffffffffffff82111561119f5761119e611109565b5b6111a882610eaa565b9050602081019050919050565b82818337600083830152505050565b60006111d76111d284611184565b611169565b9050828152602081018484840111156111f3576111f2611104565b5b6111fe8482856111b5565b509392505050565b600082601f83011261121b5761121a6110ff565b5b813561122b8482602086016111c4565b91505092915050565b60006020828403121561124a57611249610f54565b5b600082013567ffffffffffffffff81111561126857611267610f59565b5b61127484828501611206565b91505092915050565b7f4e487b7100000000000000000000000000000000000000000000000000000000600052602260045260246000fd5b600060028204905060018216806112c457607f821691505b602082108114156112d8576112d761127d565b5b50919050565b7f6f776e657220696e646578206973206f7574206f6620626f756e647321000000600082015250565b6000611314601d83610e66565b915061131f826112de565b602082019050919050565b6000602082019050818103600083015261134381611307565b9050919050565b7f4e487b7100000000000000000000000000000000000000000000000000000000600052603260045260246000fd5b7f676c6f62616c20696e646578206973206f7574206f6620626f756e6473210000600082015250565b60006113af601e83610e66565b91506113ba82611379565b602082019050919050565b600060208201905081810360008301526113de816113a2565b9050919050565b7f4572726f723a20746f6b656e496420717565727920666f72206e6f6e2d65786960008201527f7374656e74206f776e6572000000000000000000000000000000000000000000602082015250565b6000611441602b83610e66565b915061144c826113e5565b604082019050919050565b6000602082019050818103600083015261147081611434565b9050919050565b7f4572726f723a206f776e657220717565727920666f72206e6f6e2d657869737460008201527f656e7420746f6b656e0000000000000000000000000000000000000000000000602082015250565b60006114d3602983610e66565b91506114de82611477565b604082019050919050565b60006020820190508181036000830152611502816114c6565b9050919050565b600081905092915050565b600061151f82610e5b565b6115298185611509565b9350611539818560208601610e77565b80840191505092915050565b60006115518284611514565b915081905092915050565b7f4572726f723a204b727970746f4269726420616c726561647920657869737473600082015250565b6000611592602083610e66565b915061159d8261155c565b602082019050919050565b600060208201905081810360008301526115c181611585565b9050919050565b7f4e487b7100000000000000000000000000000000000000000000000000000000600052601160045260246000fd5b600061160282610f16565b915061160d83610f16565b9250828210156116205761161f6115c8565b5b828203905092915050565b7f4572726f723a207472616e7366657220746f20746865207a65726f206164647260008201527f6573730000000000000000000000000000000000000000000000000000000000602082015250565b6000611687602383610e66565b91506116928261162b565b604082019050919050565b600060208201905081810360008301526116b68161167a565b9050919050565b7f4572726f723a207472616e736665722066726f6d20746865207a65726f20616460008201527f6472657373000000000000000000000000000000000000000000000000000000602082015250565b6000611719602583610e66565b9150611724826116bd565b604082019050919050565b600060208201905081810360008301526117488161170c565b9050919050565b7f4572726f723a20747279696e6720746f207472616e73666572206120746f6b6560008201527f6e2061646472657373206f776e657220646f6573206e6f74206f776e00000000602082015250565b60006117ab603c83610e66565b91506117b68261174f565b604082019050919050565b600060208201905081810360008301526117da8161179e565b9050919050565b60006117ec82610f16565b91506117f783610f16565b9250827fffffffffffffffffffffffffffffffffffffffffffffffffffffffffffffffff0382111561182c5761182b6115c8565b5b828201905092915050565b7f4552433732313a206d696e74696e6720746f20746865207a65726f206164647260008201527f6573730000000000000000000000000000000000000000000000000000000000602082015250565b6000611893602383610e66565b915061189e82611837565b604082019050919050565b600060208201905081810360008301526118c281611886565b9050919050565b7f4552433732313a20746f6b656e20616c7265616479206d696e74656400000000600082015250565b60006118ff601c83610e66565b915061190a826118c9565b602082019050919050565b6000602082019050818103600083015261192e816118f2565b905091905056fea2646970667358221220baea4922ffde55108490bf84cb84374e2acf78fb3d1983e1624ea075ba23bea864736f6c634300080b0033",
  "immutableReferences": {},
  "source": "// SPDX-License-Identifier: MIT\npragma solidity ^0.8.0;\n\nimport './ERC721Connector.sol';\n\ncontract KryptoBird is ERC721Connector {\n    \n    // array to store our nfts\n    string[] public kryptoBirdz;\n\n    mapping(string => bool) _kryptoBirdzExists;\n\n    function mint(string memory _kryptoBird) public {\n        require(!_kryptoBirdzExists[_kryptoBird],'Error: KryptoBird already exists');\n\n        // this is deprecated - uint _id = kryptoBirdz.push(_kryptoBird);\n        // .push no longer returns the length but a ref to the added element\n\n        kryptoBirdz.push(_kryptoBird);\n        uint _id = kryptoBirdz.length -1;\n\n        _mint(msg.sender, _id);\n\n        _kryptoBirdzExists[_kryptoBird] = true;\n    }\n\n    constructor() ERC721Connector('KryptoBird', 'KBIRDZ') {}\n}\n\n",
  "sourcePath": "/Users/nicholasnikas/Desktop/nft-marketplace-starter-kit/src/contracts/KryptoBirdz.sol",
  "compiler": {
    "name": "solc",
    "version": "0.8.11+commit.d7f03943.Emscripten.clang"
  },
  "schemaVersion": "3.4.4",
  "updatedAt": "2022-01-08T01:07:01.592Z",
  "networkType": "ethereum",
  "devdoc": {
    "kind": "dev",
    "methods": {
      "balanceOf(address)": {
        "details": "NFTs assigned to the zero address are considered invalid, and this  function throws for queries about the zero address.",
        "params": {
          "_owner": "An address for whom to query the balance"
        },
        "returns": {
          "_0": "The number of NFTs owned by `_owner`, possibly zero"
        }
      },
      "ownerOf(uint256)": {
        "details": "NFTs assigned to zero address are considered invalid, and queries  about them do throw.",
        "params": {
          "_tokenId": "The identifier for an NFT"
        },
        "returns": {
          "_0": "The address of the owner of the NFT"
        }
      },
      "tokenByIndex(uint256)": {
        "details": "Throws if `_index` >= `totalSupply()`.",
        "params": {
          "_index": "A counter less than `totalSupply()`"
        },
        "returns": {
          "_0": "The token identifier for the `_index`th NFT,  (sort order not specified)"
        }
      },
      "tokenOfOwnerByIndex(address,uint256)": {
        "details": "Throws if `_index` >= `balanceOf(_owner)` or if  `_owner` is the zero address, representing invalid NFTs.",
        "params": {
          "_index": "A counter less than `balanceOf(_owner)`",
          "_owner": "An address where we are interested in NFTs owned by them"
        },
        "returns": {
          "_0": "The token identifier for the `_index`th NFT assigned to `_owner`,   (sort order not specified)"
        }
      },
      "totalSupply()": {
        "returns": {
          "_0": "A count of valid NFTs tracked by this contract, where each one of  them has an assigned and queryable owner not equal to the zero address"
        }
      }
    },
    "version": 1
  },
  "userdoc": {
    "kind": "user",
    "methods": {
      "balanceOf(address)": {
        "notice": "Count all NFTs assigned to an owner"
      },
      "ownerOf(uint256)": {
        "notice": "Find the owner of an NFT"
      },
      "tokenByIndex(uint256)": {
        "notice": "Enumerate valid NFTs"
      },
      "tokenOfOwnerByIndex(address,uint256)": {
        "notice": "Enumerate NFTs assigned to an owner"
      },
      "totalSupply()": {
        "notice": "Count NFTs tracked by this contract"
      }
    },
    "version": 1
  }
}